:020000040800F2
:10000000580A00208D9A00083D0700083F070008A5
:1000100043070008470700084B07000800000000DE
:100020000000000000000000000000004F07000872
:10003000510700080000000053070008550700089A
:10004000A79A0008A79A0008A79A0008A79A00088C
:10005000A79A0008A79A0008A79A0008A79A00087C
:10006000A79A0008A79A000883050008A79A000825
:10007000A79A0008A79A0008A79A0008A79A00085C
:10008000A79A0008A79A0008A79A0008A79A00084C
:10009000A79A0008A79A0008A79A0008A79A00083C
:1000A000A79A0008A79A0008A79A0008A79A00082C
:1000B000A79A0008A79A0008A79A0008A79A00081C
:1000C000A79A0008A79A0008A79A0008A79A00080C
:1000D000A79A0008019A0008A79A0008A79A0008A2
:1000E000A79A0008A79A0008A79A0008A79A0008EC
:1000F000A79A0008A79A0008A79A0008A79A0008DC
:10010000A79A0008A79A0008A79A0008A79A0008CB
:10011000A79A0008A79A0008A79A0008A79A0008BB
:10012000A79A0008A79A0008A79A0008A79A0008AB
:1001300000F002F800F065F80AA090E8000C824494
:100140008344AAF10107DA4501D100F05AF8AFF271
:10015000090EBAE80F0013F0010F18BFFB1A43F0A5
:10016000010318470CFD00002CFD00000A444FF06D
:10017000000C10F8013B13F0070408BF10F8014B06
:100180001D1108BF10F8015B641E05D010F8016B4B
:10019000641E01F8016BF9D113F0080F1EBF10F8AF
:1001A000014BAD1C0C1B09D16D1E58BF01F801CBD2
:1001B000FAD505E014F8016B01F8016B6D1EF9D555
:1001C0009142D6D37047000000230024002500266A
:1001D000103A28BF78C1FBD8520728BF30C148BFAA
:1001E0000B60704764290AF05D8378290AF09683D2
:1001F00073290AF07984002070471FB51FBD10B520
:1002000010BD0AF0ABFC1146FFF7F7FF00F008F84D
:100210000AF0C9FC03B4FFF7F2FF03BC09F096FB38
:100220008AB009F029FB4FF4A06009F04FFC4FF4AD
:10023000E13009F099FB07F042FC09F001FB07F0FF
:100240001BFC03F061F8F949086880474FF47840D7
:10025000F749088007F0F1F892E105A807F013FBD1
:100260009DF91400F34901EB0013D3E90012D3E91F
:100270000203CDE90803CDE90612EF4890F900002A
:1002800000909DF916309DF915209DF91D109DF9DE
:100290001C00089DA84700287ED09DF916209DF9D6
:1002A00015109DF9140003AB00F093FD9DF81E108E
:1002B00009B9012100E00021084602A900F01DFE55
:1002C00010B900F0F5FD60B303A800F0BEFD9DF885
:1002D000140007F0B6FAD9480078D949096840F205
:1002E000CF134CF6DE62CDE90010D6480188D6481F
:1002F000008801F090FBD1480078D1490968CDE928
:100300000010D1490988CD4A1278114488B240F2D0
:10031000CF134DF2A702CB49098801F07CFB0124E1
:100320002EE19DF90F109DF90E0007F056F99DF989
:10033000140007F055F8C54803990160BDF8101086
:1003400081800120C24908709DF91E0002A900F0B9
:10035000D4FD00287ED00120BE4908609DF9080028
:1003600001F05DF8002876D047F6FF70B0490880AC
:10037000B94800880090B3480088B049097808441B
:1003800083B2B1480088AD490978022505FB010018
:1003900082B2AC48018800E0C9E0AB48008806F0B2
:1003A00095FDAEA0B0490978CDE90010AE490978B5
:1003B00001EB41014A00A4490988A04B1B780325A1
:1003C00005FB031188B2A8490B789E49098806F0FD
:1003D000D4FF9948007878B198480078984909681E
:1003E00000234BF6DA22CDE90010964801889648A2
:1003F000008801F010FB0FE09048007890490968F0
:100400004FF478434BF6EC22CDE900108D4801887B
:100410008D48008801F0FFFA88480078884909680B
:10042000CDE9001088490988844A1278114488B2BD
:1004300047F6FF734BF2BD728249098801F0EBFA6F
:100440007E4800787E490968CDE900107B4909782B
:100450007D4A01E049E013E0128802EB410188B2D5
:1004600047F6FF734CF6A4227649098801F0D3FAC7
:10047000002078490860FE207449087000BFFEE73C
:100480006E4800786E490968CDE900106A48007826
:1004900008B1002001E04FF4784003464BF6AB5220
:1004A000684801886848008801F0B5FA6348007818
:1004B00063490968CDE900105F49097809B1002155
:1004C00001E04FF478410B465F4909885B4A127896
:1004D000114488B24BF6FC625A49098801F09BFA34
:1004E000012400205B49086018E0BCB15A4800882C
:1004F00000905448008851490978084483B2524812
:1005000000884E490978022505FB010082B24D485A
:1005100001884D48008806F0D9FC00244648007840
:1005200008B9012000E000204349087028E09DF848
:10053000140007F086F9414800784149096840F203
:10054000CF134CF6DE62CDE900103E4801883E48EC
:10055000008801F060FA3948007839490968CDE926
:10056000001039490988354A1278114488B240F29E
:10057000CF134DF2A7023349098801F04CFA012448
:100580006BE6FEB5314890F9015090F900402948DA
:1005900000EB041090F90460264800EB041090F979
:1005A00005702A4890F90000801C18B910200AF044
:1005B00004F9FEBD0A2009F09CF910212B4809F02E
:1005C000E6FB00287CD1224800780128FAD128488F
:1005D00090F90000801C18B12549087807F031F91E
:1005E0001A4800F032FC681C18B1284606F0F8FEE4
:1005F00003E03946304606F0F0FF204606F0F0FEF4
:1006000002A90D4890F9000000F077FC10B900F045
:100610004FFC50B10948007809490968CDE900103C
:100620000548007830B3002026E04AE09C02002014
:100630007A020020200000201800002089020020FB
:10064000940200208C0200208A0200201A00002060
:1006500019000020A08121427C0200202067616DEA
:1006600065206F76657221008E020020001801401F
:10067000000000204FF4784003464BF6AB52274869
:1006800001882748008801F0C6F9264800782649E5
:100690000968CDE900102549097809B1002101E078
:1006A0004FF478410B461E4909881E4A12781144BE
:1006B00088B24BF6FC621949098801F0ACF916E0E2
:1006C00020E01B48008800901448008815490978EC
:1006D000084483B2134800781149098801EB4000AF
:1006E00082B20E4801880E48008806F0EFFB0F48E2
:1006F000007808B9012000E000200C4908700020B3
:100700000C49087000BF10210B4809F040FB00287D
:10071000F9D010200AF051F800BF4AE78C020020FF
:100720008A02002089020020940200201800002084
:100730007C0200201900002000180140704700BF13
:10074000FEE700BFFEE700BFFEE700BFFEE7704721
:1007500070477047704700000CB500200190009072
:100760006C48006840F480306A49086000BF6948FE
:10077000006800F4003000900198401C019000983F
:1007800018B90198B0F5A06FF1D16248006800F483
:10079000003010B10120009001E00020009000988E
:1007A000012843D15C48006840F010005A490860B5
:1007B0000846006820F0030008600846006840F022
:1007C0000200086053484068524948600846406843
:1007D00048600846406840F48060486008464068C9
:1007E00020F47C1048600846406840F4E8104860F7
:1007F0000846006840F08070086000BF4548006807
:1008000000F000700028F9D04248406820F0030052
:10081000404948600846406840F00200486000BF18
:100820003C48406800F00C000828F9D10CBD10B518
:10083000FFF792FF10BD10B53648006840F0010088
:1008400034490860084640683449084031494860E6
:1008500008460068324908402E490860084600688A
:1008600020F4802008600846406820F4FE004860BC
:100870004FF41F008860FFF7DAFF4FF0006029494E
:10088000086010BD10B5002100200022214B5B68DC
:1008900003F00C0121B1042906D0082928D107E072
:1008A000214B224C236027E01F4B204C236023E088
:1008B000184B5B6803F47010164B5B6803F48032CE
:1008C000022303EB904022B9194B4343174C23609A
:1008D0000DE0104B5B6803F4003323B1144B43432A
:1008E000124C236003E0104B4343104C236003E0A1
:1008F0000D4B0E4C236000BF00BF064B5B68C3F37B
:1009000003130C4CE15C094B1B68CB40074C236084
:1009100010BD000000100240002002400000FFF85F
:10092000FFFFF6FE08ED00E000127A000400002050
:1009300000093D00080000202DE9F0410446DDF8E3
:1009400018C0944204D0994202D00020BDE8F08142
:10095000944203D1994201D10020F7E702EB8200D3
:10096000DFF8008408EB4000C756781C40B1FE4811
:1009700000EB071090F90600604501D10020E5E783
:10098000002A05DB002B03DB082A01DC092B01DD33
:100990000020DBE7012594421ED1994202DD0E467C
:1009A0001946334605E04819984200D10EE0681C0C
:1009B00045B204EB8400DFF8AC8308EB400001EBA8
:1009C000050810F90800401C0028ECD000BF4819A9
:1009D00098421ED00020B9E7944202DD2646144614
:1009E000324605E06019904200D10CE0681C45B227
:1009F000601900EB8000DFF86C8308EB4000405684
:100A0000401C0028EED000BF6019904201D00020A9
:100A10009CE701209AE72DE9F04705460E46DDF8F0
:100A20002090501B41B2981B44B201FB04F00228F5
:100A300006D001FB04F0801C10B10020BDE8F08757
:100A400002EB8200DFF81CA30AEB4000C756781CBB
:100A500040B1C54800EB071090F90600484501D1A8
:100A60000020EBE7084601EBD07A05EB6A0A4FFA63
:100A70008AFC204604EBD07A06EB6A0A4FFA8AF821
:100A80000CEB8C00DFF8DCA20AEB400010F9080048
:100A9000401C08B10020D1E7002A05DB002B03DB56
:100AA000082A01DC092B01DD0020C7E70120C5E78A
:100AB0002DE9F04706460F46DDF820C0901B44B2F2
:100AC000D81B45B2022C01D0A01C18B9022D04D0AD
:100AD000A81C10B10020BDE8F087A04604EBD8792F
:100AE00006EB690909EB8909DFF878A20AEB4909E5
:100AF000284605EBD07A07EB6A0A19F90A10481C58
:100B000008B10020E7E7002A05DB002B03DB082AF9
:100B100001DC092B01DD0020DDE7BCF1000F03D073
:100B2000042B05DD0020D6E7052B01DA0020D2E7F3
:100B300002EB8200DFF82C8208EB4000C156481C13
:100B400040B1894800EB011090F90600604501D1E1
:100B50000020C0E70120BEE72DE9F04104460E4623
:100B6000069D101B4FFA80FC981B47B2032A01DB3D
:100B7000052A02DD0020BDE8F0810CFB0CF007FB2C
:100B80000700022801D00020F5E72DB1022B01DC7F
:100B9000002B07DA0020EEE7072B01DB092B01DD34
:100BA0000020E8E702EB8200DFF8B88108EB4000A4
:100BB000C156481C40B16C4800EB011090F906008A
:100BC000A84201D10020D6E70120D4E72DE9F04169
:100BD0000446069D101B4FFA80FC581A47B202EBE0
:100BE0008200DFF8808108EB4000C656701C48B1D7
:100BF0005D4800EB061090F90600A84202D10020E3
:100C0000BDE8F081032A01DB052A01DD0020F7E7BA
:100C10000CFB0CF007FB0700012801D00020EFE7D8
:100C20002DB1022B01DC002B07DA0020E8E7072BAF
:100C300001DB092B01DD0020E2E70120E0E72DE9DF
:100C4000F0470446DDF8209002EB8200DFF814A1A3
:100C50000AEB400010F903800026944204D0994228
:100C600002D00020BDE8F087944203D1994201D11F
:100C70000020F7E7002A05DB002B03DB082A01DC54
:100C8000092B01DD0020EDE702EB8200DFF8D4A0A4
:100C90000AEB400010F903C0012594421AD1994291
:100CA00002DD0F4619463B4601250FE004EB8400A8
:100CB000DFF8B0A00AEB400001EB050A10F90A00CA
:100CC000401C08B1701C46B2681C45B248199842D5
:100CD000ECDB17E0944202DD274614463A46012534
:100CE0000DE0601900EB8000DFF878A00AEB40000F
:100CF0004056401C08B1701C46B2681C45B26019D1
:100D00009042EEDB012E01DD0020ABE7012E02D187
:100D100008F1010018B126B908F1010008B100205E
:100D2000A0E70CF1010040B10F4800EB0C1090F966
:100D30000600484501D1002094E7012092E72DE903
:100D4000F0410746DDF818C0D01B44B2581A46B22D
:100D500006FB06F004FB0400012807D00020BDE8D4
:100D6000F08100002002002020000020002A05DB86
:100D7000002B03DB082A01DC092B01DD0020EEE754
:100D8000BCF1000F08D0002E01DA0020E7E70429AB
:100D90000BDC54B10020E2E7002E01DD0020DEE78D
:100DA000052902DB0CB10020D9E702EB8200DFF855
:100DB000F88008EB4000C556681C40B13B4800EB8A
:100DC000051090F90600604501D10020C7E7012019
:100DD000C5E7F0B51870354D05EB00152D799D7000
:100DE000324D05EB00156D79DD7019715A7101EB0B
:100DF00081052D4E06EB4505AC565C70FF252B4E4C
:100E000006EB001696F9046006EB8606264F07EB04
:100E10004606264F07EB001797F90570F555651C38
:100E200025B10025214E06EB0416357301EB810533
:100E30001D4E06EB4505A8541C4D05EB0015297108
:100E40001A4D05EB00156A71F0BD30B590F9001030
:100E500090F901208378154C04EB01142371C378B9
:100E6000124C04EB0114637190F901305B1C33B137
:100E7000012390F901400D4D05EB0414237390F903
:100E8000023003EB8303084C04EB430390F9034067
:100E9000195590F9043003EB8303034C04EB43032F
:100EA00090F905401A5530BD200200202000002096
:100EB000F94890F9442090F9B401824201D0002011
:100EC0007047F54890F84500401C41B20EE0F248EA
:100ED00090F9440000EB8000F04A02EB40004056DD
:100EE000401C08B10020EBE7481C41B2EA4890F9E9
:100EF000B5018842EBDC0120E2E7F0B58BB0064695
:100F00000D46E7A207CA04AB07C3E8A207CA01ABB4
:100F100007C34EB3002424E004A80057DE4901EBC8
:100F2000001090E80E00C06807AF0EC70A909DF849
:100F30002800A0B10120DFF860C300909CF9B53112
:100F40009CF9B4219DF921109DF92000099FB84713
:100F500028B104A8005D287001200BB0F0BD601C12
:100F600044B20A2CD8DD27E0002423E001A8005772
:100F7000C94901EB001191E80D00C96807AF0DC721
:100F80000A919DF8280098B10020DFF80CC300906A
:100F90009CF945309CF944209DF921109DF92000D1
:100FA000099FB84720B101A8005D28700120D4E74F
:100FB000601C44B20A2CD9DD0020CEE72DE9FF41A8
:100FC00004460D461646B44800EB0410007B70B38F
:100FD000B14800EB041090F90600AF4A02EB04128E
:100FE000009092F90510AC4A02EB041292F9040049
:100FF000A94A02EB041273B297686AB2B847B0B15B
:1010000001AB72B269B260B2FFF7E3FE03A9AA486E
:1010100090F90000FFF771FF50B9FFF749FF38B9A9
:1010200001A8FFF712FF012004B0BDE8F08102E043
:1010300001A8FFF70AFF0020F6E770B505460E4647
:101040009D48007898B110240DE01B2C00D108E0D9
:10105000F2B2E9B2E0B2FFF7B1FF08B1012070BD12
:1010600000BF601C44B21F2CEFDD0020F7E7002416
:101070000DE0042C00D108E0F2B2E9B2E0B2FFF7D3
:101080009DFF08B10120EAE700BF601C44B20F2CAD
:10109000EFDD0020E3E72DE9F34F8BB0054687A392
:1010A000D3E901021968DB6808AC0DC4079187A079
:1010B00003C8CDE9050187A103C9CDE9030187A1D3
:1010C00003C9CDE90101744800EB051090F9060051
:1010D000794991F90010884203D100200DB0BDE894
:1010E000F08F6D4800EB051090F904606A4800EB42
:1010F000051090F9057068490C9801EB001090F903
:1011000004800C9801EB001090F905A0202D76D2F8
:10111000DFE805F0FAACF2F175F0EFADFB101175F8
:101120007575757575757575751213FCAAECEB758B
:10113000EAE9ABFD00BF00BF00BF464549D100242E
:101140000DE0B44200D108E0FAB2E1B2E8B2FFF734
:1011500035FF08B10120C1E700BF601C44B2082C74
:10116000EFDDBA4501DD012001E04FF0FF3083469D
:101170000AEB0B0044B226E006EB8600474901EB80
:10118000400010F9049009F1010018B904EB0B00BC
:1011900044B218E0404800EB091090F906004649B7
:1011A000097809B9012100E00021884201D100201D
:1011B00094E7E2B2F1B2E8B2FFF700FF08B1002015
:1011C0008CE701208AE7092C01DC002CD4DA00200E
:1011D00084E700240DE0BC4200D108E0E2B2F1B2A5
:1011E000E8B2FFF7EBFE08B1012077E700BF601C13
:1011F00044B2092CEFDDB04502DD012002E0F4E04D
:101200004FF0FF30834608EB0B0044B226E004EBBE
:101210008400224901EB400010F9079009F1010018
:1012200018B904EB0B0044B218E01B4800EB09109E
:1012300090F906002049097809B9012100E0002150
:10124000884201D1012049E7FAB2E1B2E8B2FFF7E2
:10125000B5FE08B1002041E701203FE7082C01DC82
:10126000002CD4DA002039E700BF00BF00BF002403
:1012700046E063005B1C0DF11C0C1CF803303B4482
:10128000DAB21CF814303344D9B2E8B2FFF796FE54
:1012900008B1012022E731E02000002020020020D8
:1012A00000010708090A0B0C0D0E0F001011121394
:1012B00014151617181E1F0018000020010201FE49
:1012C000FF02FFFE020102FFFE01FEFF020202FE1C
:1012D000FE02FEFE010101FFFF01FFFF000100FF12
:1012E0000100FF0013E049E065E063E045E00DE048
:1012F0000BE041E05DE05BE03DE005E0601C44B2F6
:10130000072CB6DD0020E9E600BF00BF00BF0AF0F1
:10131000FF0208F0FF01E8B2FFF750FE08B101201C
:10132000DCE6464513D100240DE0B44200D108E0CC
:10133000FAB2E1B2E8B2FFF741FE08B10120CDE612
:1013400000BF601C44B2082CEFDD0020C6E600247C
:101350000DE0BC4200D108E0E2B2F1B2E8B2FFF722
:101360002DFE08B10120B9E600BF601C44B2092C73
:10137000EFDD0020B2E600BF00BF00BF002413E095
:1013800063005B1C0DF1140C1CF803303B44DAB213
:101390001CF814303344D9B2E8B2FFF70FFE08B19D
:1013A00001209BE6601C44B2032CE9DD002095E699
:1013B00000BF00BF00BF002413E063005B1C0DF101
:1013C0000C0C1CF803303B44DAB21CF814303344E4
:1013D000D9B2E8B2FFF7F2FD08B101207EE6601C49
:1013E00044B2032CE9DD002078E6002413E063001A
:1013F0005B1C0DF1040C1CF803303B44DAB21CF802
:1014000014303344D9B2E8B2FFF7D8FD08B1012057
:1014100064E6601C44B2032CE9DD00205EE62DE9A1
:10142000F14F82B09248007810B14FF01B0A01E0F2
:101430004FF0040A8F49029801EB001090F9046004
:10144000029801EB001090F90590084600EB0A1095
:1014500090F90450084600EB0A1090F9058008F155
:101460000103DAB2E9B20AF0FF00FFF7A7FD10B1FD
:101470000020BDE8FE8FA8F10103DAB2E9B20AF05C
:10148000FF00FFF79BFD08B10020F2E708F0FF0224
:101490006B1CD9B20AF0FF00FFF790FD08B10020E5
:1014A000E7E708F0FF026B1ED9B20AF0FF00FFF772
:1014B00085FD08B10020DCE70298152816D009DC6C
:1014C0000B286ED2DFE800F09476CBCBCBCBCB777A
:1014D0009510110016380A28F3D2DFE800F0088BC7
:1014E00069C0C0C0C0C06A8C00BF00BF00BF494611
:1014F0003046FFF7A2FD08B10020BAE7AE422BD17B
:10150000C84502DD4FF0FF3000E00120074608EB40
:10151000070044B21CE006EB8600574901EB40008F
:1015200010F904B00BF1010030B158460299FFF7F1
:10153000B2FD08B100209CE70BF1010030B9214653
:101540003046FFF77AFD08B1002092E7E01944B277
:101550004C45E0D101208CE7B54202DD4FF0FF3071
:1015600000E001200746E81944B21DE004EB8400C6
:10157000414901EB400010F909B00BF1010030B115
:1015800058460299FFF787FD08B1002071E70BF17B
:10159000010038B949462046FFF74FFD10B1002041
:1015A00067E75CE0E01944B2B442DFD1012060E7B4
:1015B00000BF00BF00BF49463046FFF73EFD08B1FF
:1015C000002056E7A8EB0902019202EBD27209EB68
:1015D000620251B2AA1B009202EBD27206EB6202C7
:1015E00050B2FFF72AFD08B1002042E7012040E792
:1015F00000BF00BF00BFAE4219D1C84502DD4FF0A9
:10160000FF3000E00120074608EB070044B208E085
:1016100021463046FFF711FD08B1002029E7E01907
:1016200044B209EB0700A042F2D1012021E7B54204
:1016300002DD4FF0FF3000E001200746E81944B218
:1016400008E049462046FFF7F8FC08B1002010E703
:10165000E01944B2F019A042F3D1012009E749464C
:101660003046FFF7EAFC08B1002002E7012000E75E
:101670001800002020000020200200204FF480717C
:10168000FC4A516149005161FB4908608021516168
:10169000116189001161704710B504460B46204660
:1016A000FFF7ECFF4FF48070F24908614000486199
:1016B000F14803608020486108618000086110BD26
:1016C00070B504460D461646EC48808849F2413113
:1016D000884205D0E948808845F21031884240D1DF
:1016E000E6494889FFF7CAFF4FF48070E149086175
:1016F000400048612012E04908608020DD494861CF
:101700000861800008614010086140004861E0B253
:10171000D94908608020D749486108618000086184
:10172000D6498889FFF7AAFF4FF48070D149086134
:10173000400048612812D04908608020CD494861A6
:101740000861800008614010086140004861E8B20B
:10175000C94908608020C749486108618000086164
:101760003DE1C648808845F21051884250D1C349B6
:101770004889FFF783FF4FF48070BE49086140003D
:1017800048612012BC4908608020BA49486108615C
:1017900080000861B9494989491C88B2FFF76EFF8A
:1017A0004FF48070B349086140004861E0B2B2492B
:1017B00008608020AF494861086180000861AF4936
:1017C0008889FFF75BFF4FF48070AA4908614000E9
:1017D00048612812A84908608020A649486108612C
:1017E00080000861A5498989491C88B2FFF746FF36
:1017F0004FF480709F49086140004861E8B29E49FB
:10180000086080209B494861086180000861E6E02B
:101810009A48808841F6631188427DD19748807943
:1018200020B996480088401E001B84B2934948891D
:10183000FFF724FF4FF480708E4908614000486133
:1018400020128D49086080208A4948610861800023
:1018500008614010086140004861E0B286490860B4
:101860008020844948610861800008614010086157
:101870004000486120128049086080207D4948610D
:101880000861800008614010086140004861E0B2D2
:1018900079490860802077494861086180000861C3
:1018A00076498889FFF7EAFE4FF480707149086134
:1018B0004000486128127049086080206D494861E5
:1018C0000861800008614010086140004861E8B28A
:1018D00069490860802067494861086180000861A3
:1018E0004010086140004861281263490860802068
:1018F000604948610861800008614010086140004B
:101900004861E8B25C49086080205A494861086132
:101910008000086163E0FFE75848808846F60401CC
:10192000884249D155488079012804D1534800881C
:10193000401E001B84B251494889FFF79FFE4FF4B7
:1019400080704C4908614000486120124A49086093
:1019500080204849486108618000086140100861A2
:1019600040004861E0B24449086080204149486134
:1019700008618000086141498889FFF77FFE4FF4C4
:1019800080703C4908614000486128123A4908606B
:101990008020384948610861800008614010086172
:1019A00040004861E8B2344908608020314948610C
:1019B00008618000086112E030488079012804D174
:1019C0002E480088401E001B84B22C4948892146BD
:1019D000FFF762FE294988892946FFF75DFE4FF42B
:1019E00080702449486140004861244800892249A8
:1019F000086080201F49486108618000086140102C
:101A00000861400048611C48066080204861086108
:101A10008000086170BD2DE9FF4F89B08A46179C90
:101A200000200790A346E11704EB5171C910A4EB05
:101A3000C10109B1012100E00021084609F049FB7C
:101A4000CDE90201204609F05BFB00220C4BCDE9F9
:101A5000000109F089F90746DDE9022309F0D0F811
:101A6000054609F009FBC0B2059005986043049053
:101A70000CE00000001001400C0C0140F8020020B6
:101A8000000020400798401C40B20790FE4907988C
:101A900051F820100B988142F4D14FF0000938E042
:101AA000072006901EE00499079800FB0191169804
:101AB000405C0699084100F0010028B151460C9A9B
:101AC0000998FFF7FDFD05E0F048028851460998A6
:101AD000FFF7F6FD0AF101001FFA80FA0698401E92
:101AE00040B2069006980028DDDA09F10100059958
:101AF00090FBF1F201FB120038B90998401C80B24A
:101B00000990AAEB04001FFA80FA09F101001FFAFC
:101B100080F904988145C3DD0DB0BDE8F08F00B5B4
:101B2000DB490889FFF7AAFD00BD30B504460D4624
:101B3000D748808849F24131884205D0D44880880E
:101B400045F21031884240D1D1494889FFF796FDCE
:101B50004FF48070CF490861400048612012CE499F
:101B600008608020CB49486108618000086140100E
:101B7000086140004861E0B2C74908608020C5495B
:101B80004861086180000861C1498889FFF776FDD6
:101B90004FF48070BF490861400048612812BE4977
:101BA00008608020BB4948610861800008614010DE
:101BB000086140004861E8B2B74908608020B54933
:101BC000486108618000086191E1B148808846F66B
:101BD0000401884249D1AE488079012804D1AC483B
:101BE0000088401E001B84B2A9494889FFF746FDC2
:101BF0004FF48070A7490861400048612012A6494F
:101C000008608020A3494861086180000861401095
:101C1000086140004861E0B29F49086080209D490A
:101C2000486108618000086199498889FFF726FDAD
:101C30004FF4807097490861400048612812964926
:101C40000860802093494861086180000861401065
:101C5000086140004861E8B28F49086080208D49E2
:101C6000486108618000086141E18948808841F647
:101C7000631188427ED18648807900283FD184480C
:101C80000088401E001B84B281494889FFF7F6FC9A
:101C90004FF480707F4908614000486100207E4910
:101CA000086080207B49486108618000086140101D
:101CB000086140004861002077490860802075492C
:101CC0004861086180000861401008614000486177
:101CD00020127149086080206E49486108618000C7
:101CE00008614010086140004861E0B26A4908603C
:101CF00080206849486108618000086141E06449CA
:101D00004889FFF7BBFC4FF48070624908614000CE
:101D1000486120126049086080205E49486108617E
:101D2000800008614010086140004861E0B25A49F3
:101D300008608020574948610861800008614010B0
:101D400008614000486152480088401E0012524914
:101D5000086080204F494861086180000861401098
:101D60000861400048614A480078401EC0B24A49B4
:101D7000086000E046E08020464948610861800034
:101D8000086143498889FFF779FC4FF48070414925
:101D900008614000486128123F49086080203D49A1
:101DA0004861086180000861401008614000486196
:101DB000E8B23949086080203649486108618000EE
:101DC0000861401008614000486131484088401E69
:101DD00000123149086080202E4948610861800066
:101DE0000861401008614000486129488078401E21
:101DF000C0B22949086080202649486108618000F6
:101E0000086174E02248808845F2105188425BD115
:101E10001F494889FFF732FC4FF480701D49086163
:101E20004000486120121C4908608020194948611F
:101E300008618000086116494989491C88B2FFF78A
:101E40001DFC4FF480701349086140004861E0B206
:101E50001149086080200F494861086180000861CD
:101E60000B498889FFF70AFC4FF480700949086123
:101E700040004861281208490860802005494861EF
:101E800008618000086109E0C0BE00087C020020F3
:101E9000F8020020001001400C0C0140F74989892C
:101EA000491C88B2FFF7EAFB4FF48070F4490861DF
:101EB00040004861E8B2F34908608020F049486179
:101EC00008618000086112E0EC488079012804D1A3
:101ED000EA480088401E001B84B2E8494889214630
:101EE000FFF7DAFBE54988892946FFF7D5FB30BDC6
:101EF00030B504460D4629462046FFF716FEFFF78B
:101F00000EFE4FF48070DE49086140004861DE48F3
:101F10000088DC4908608020D94948610861800058
:101F2000086130BD2DE9FF4F84B081468A4600200C
:101F3000039002900698A0EB09050798A0EB0A060B
:101F4000CDF80490CDF800A0002D01DD012705E0BB
:101F50000DB9002702E04FF0FF376D42002E02DD81
:101F60004FF0010806E016B94FF0000802E04FF00C
:101F7000FF387642B54201DD2C4600E034464FF092
:101F8000000B21E0009A91B2019A90B2FFF7B0FFE6
:101F90000398284403900298304402900398A0428A
:101FA00005DD0398001B03900198384401900298C6
:101FB000A04205DD0298001B02900098404400906A
:101FC0000BF101001FFA80FBB0480078201A584539
:101FD000D8DA08B0BDE8F08F2DE9F74F8EB007468C
:101FE0001546E91705EB5171C910A5EBC10108951C
:101FF00009B1012100E00021084609F06AF8CDE9A5
:102000000401284609F07CF80022A14BCDE900012B
:1020100008F0AAFECDE90201DDE9042308F0F0FD95
:10202000CDE9060109F028F8C0B20990099805FB2E
:1020300000FB984800EB071090F90400964931F82E
:1020400010000D90934800EB071090F9050093499C
:1020500031F810000C908F4800EB0710008880B218
:102060000B908C4800EB071090F9060080B20A90A4
:102070004FF0000A03E00AF1010000F0FF0A88486F
:1020800050F82A100B988142F5D10A98002879D08F
:10209000284609F035F80022824BCDE9000109F00D
:1020A0007FF8CDE904010D9809F02AF8CDE9020185
:1020B000DDE9042309F09AFACDE9060108F0DCFF16
:1020C0001FFA80F8284609F01BF80022754BCDE96D
:1020D000000109F065F8CDE904010C9809F010F849
:1020E000CDE90201DDE9042309F080FACDE906011A
:1020F00008F0C2FF1FFA80F900243FE0002614E038
:102100000AFB0B410F98405CC6F10701084100F043
:10211000010020B1002249464046FFF7D1FA09F1FB
:1021200001001FFA80F9701CC6B2072EE8DD601CA2
:10213000099990FBF1F201FB1200E8B908F10100E6
:102140001FFA80F8284608F0DBFF0022554BCDE946
:10215000000109F025F8CDE904010C9808F0D0FF42
:10216000CDE90201DDE9042309F040FACDE90601D9
:1021700008F082FF1FFA80F9601CC4B25C45BDDD27
:1021800079E0FFE7284608F0BBFF0022454BCDE988
:10219000000109F005F8CDE904010D9808F0B0FF41
:1021A000CDE90201DDE9042308F02AFDCDE90601AD
:1021B00008F062FF1FFA80F8284608F0A1FF00220D
:1021C000384BCDE9000108F0EBFFCDE904010C9894
:1021D00008F096FFCDE90201DDE9042308F010FDC7
:1021E000CDE9060108F048FF1FFA80F9002440E01D
:1021F000002615E00AFB0B410F98405CC6F1070171
:10220000084100F0010028B14FF4784249464046A9
:10221000FFF756FAA9F101001FFA80F9701CC6B247
:10222000072EE7DD601C099990FBF1F201FB12001B
:10223000E8B9A8F101001FFA80F8284608F060FF0D
:102240000022184BCDE9000108F0AAFFCDE90401F6
:102250000C9808F055FFCDE90201DDE9042308F0F0
:10226000CFFCCDE9060108F007FF1FFA80F9601CDA
:10227000C4B25C45BCDD11B0BDE8F08FF8020020AF
:10228000001001400C0C01407A020020870200205F
:10229000000020402000002006030020180300203A
:1022A00094BE00080000E03F2DE9FF4F84B0814656
:1022B0008A460020039002900698A0EB0905079833
:1022C000A0EB0A06CDF80490CDF800A0002D01DDAA
:1022D000012705E00DB9002702E04FF0FF376D42FE
:1022E000002E02DD4FF0010806E016B94FF000089D
:1022F00002E04FF0FF387642B54201DD2C4600E0A7
:1023000034464FF0000B21E0009A91B2019A90B24E
:10231000FFF7EEFD039828440390029830440290A2
:102320000398A04205DD0398001B039001983844F0
:1023300001900298A04205DD0298001B02900098CF
:10234000404400900BF101001FFA80FB601C8345A4
:10235000DADD08B0BDE8F08F2DE9F04706460F46FC
:1023600090469946F848B0F800A0A0F800900024E4
:1023700031E0454601E0681E85B205FB05F004FB2F
:10238000040108FB08F08142F5DC07EB050C1FFA9D
:102390008CF304EB060C1FFA8CF2A7EB050C1FFA6A
:1023A0008CF104EB060C1FFA8CF0FFF77DFF07EBB6
:1023B000050C1FFA8CF3A6EB040C1FFA8CF2A7EBAA
:1023C000050C1FFA8CF1A6EB040C1FFA8CF0FFF73A
:1023D0006BFF601C84B24445CBDDDB48A0F800A055
:1023E000BDE8F0874FF48071D84A1161490051610E
:1023F000D7490860802151611161890011617047DE
:1024000010B54FF08830D2490C390860091D0860BA
:102410000020CF4908608815CC4908614000486118
:1024200040204861CB48808848F68911884202D113
:10243000022007F03AFAC648001F006884B2402024
:10244000C2490861C00008614FF03330C0490C39FF
:102450000860091D08604FF6FF70BD4908602046FE
:1024600010BD10B504462046FFF708F9FFF7C8FF76
:1024700010BD4FF48071B54A116149005161B449F2
:10248000086080215161116189001161704730B588
:10249000014601F01F04C1F34513CA0AE50205EB2A
:1024A00043151544A8B230BD00BF0100A0F10102E0
:1024B000D0B2FAD170472DE9F04105460E46A54845
:1024C0000088A84203DDA3484088B04202DC002017
:1024D000BDE8F08131462846FFF727FB9D488088FC
:1024E00049F24131884211D09A48808846F6040169
:1024F00088420BD09748808845F21031884205D039
:102500009448808841F66311884203D12E20FFF75A
:10251000B5F80DE08F48808845F21051884204D10B
:102520004FF43850FFF7AAF802E02220FFF7A6F890
:102530004FF0883086490C390860091D08604FF655
:10254000FF70834908608815804908614000486130
:10255000402048610220FFF7A7FF7D48001F006868
:1025600084B24020794908617A48808841F6631135
:10257000884210D14FF40070744908614FF0333035
:1025800073490C390860091D08604FF6FF707049E7
:10259000086020469CE740206C4948610220FFF714
:1025A00083FF6B48001F006884B2402067490861C0
:1025B0006848808849F2413188420BD0654880885C
:1025C00045F21031884205D06248808845F21051AA
:1025D000884213D140205D4948610220FFF764FF23
:1025E0005B48001F00681FFA80F8402057490861C7
:1025F000E7B24FF6FF7000EA07270DE055488088E4
:1026000046F60401884207D14020504948610861DC
:102610004F48001F006884B24FF400704B490861B6
:102620004FF033304A490C390860091D08604FF6F5
:10263000FF70474908604748808849F22531884241
:1026400016D04448808844F23551884210D0414821
:102650008088091F88420BD03E48808848F689113F
:10266000884205D03B4880884BF20551884201D111
:1026700020462DE73748808849F2413188420BD007
:102680003448808845F21031884205D0314880882E
:1026900045F21051884207D1E012C002B91240EA57
:1026A000411040EAE82013E72046FFF7F0FE0FE76D
:1026B00000B52848808849F24131884211D0254828
:1026C000808846F6040188420BD02248808845F273
:1026D0001031884205D01F48808841F66311884236
:1026E00003D12920FEF7CAFF0FE01A48808845F27F
:1026F0001051884204D14FF42450FEF7BFFF04E08C
:1027000040F273110720FEF7C7FF00BD00B5114866
:10271000808849F24131884211D00E48808846F6BF
:10272000040188420BD00B48808845F21031884262
:1027300005D00848808841F6631188420CD12820D2
:10274000FEF79CFF17E000007A0200200010014015
:102750000C0C0140F8020020FE48808845F2105120
:10276000884204D14FF42050FEF788FF03E0002197
:102770000720FEF791FF00BDF0B5054600240027B5
:10278000F448807901280BD1F248808846F604018C
:10279000884205D0EF48808841F66311884208D10D
:1027A000EC488079F0B9EB48808841F663118842A3
:1027B00018D1082D15D2DFE805F00406080A0C0E22
:1027C000101206250DE007250BE0042509E005257C
:1027D00007E0012505E0002503E0032501E00225CF
:1027E00000BF00BFDB48808849F24131884217D0E2
:1027F000D848808846F60401884211D0D5488088A0
:1028000045F2103188420BD0D248808845F21051F1
:10281000884205D0CF48808841F6631188427DD137
:10282000082D1CD2DFE805F00406090C0F1215185C
:1028300000BF14E044F0800411E044F040040EE0D6
:1028400044F0C0040BE044F0200408E044F06004CD
:1028500005E044F0A00402E044F0E00400BF00BF43
:10286000BC48808845F21051884202D14FF4585735
:1028700000E03627B748808845F2103188420DD0F5
:10288000B448808845F21051884207D0B14880880A
:1028900041F66311884201D044F00804AD488088B5
:1028A00046F60401884201D144F00204214638462C
:1028B000FEF7F2FEA748808841F6631188421DD0DA
:1028C00004F0200068B1A3480088A24949888842E2
:1028D00014DAA048068840889E4908800846468049
:1028E0000CE09C4800889B494988884206DD99484D
:1028F0000688408897490880084646809548808821
:1029000045F2105188427DD192494889FEF7B6FEC2
:102910004FF4807090490861400000E031E1486167
:1029200000208E49086080208B4948610861800042
:10293000086188494989491C88B2FEF79FFE4FF417
:102940008070854908614000486100208349086023
:102950008020814948610861800008617D4949897A
:10296000891C88B2FEF78AFE4FF480707A490861AC
:102970004000486177480088401E0012774908608F
:102980008020754948610861800008617149498962
:10299000C91C88B2FEF772FE4FF480706E49086160
:1029A000400048616B480078401EC0B26B49086027
:1029B000802069494861086180000861654988890B
:1029C000FEF75CFE4FF48070634908614000486187
:1029D00000206249086080205F49486108618000EA
:1029E00008615C498989491C88B2FEF747FE4FF4AB
:1029F00080705949086140004861002057490860CB
:102A0000802000E035E05449486108618000086199
:102A100050498989891C88B2FEF730FE4FF48070D6
:102A20004D490861400048614A484088401E0012F4
:102A30004A4908608020484948610861800008616F
:102A400044498989C91C88B2FEF718FE4FF480708A
:102A500041490861400048613E488078401EC0B24C
:102A60003E49086080203C49486108618000086157
:102A7000AEE038494889FEF701FE4FF480703649D0
:102A800008614000486100203449086080203249D4
:102A90004861086180000861401008614000486199
:102AA00000202E49086080202B4948610861800081
:102AB0000861401008614000486126480088401EB7
:102AC000001226490860802023494861086180007F
:102AD000086140100861400048611E480078401EAF
:102AE000C0B21E49086080201B494861086180000F
:102AF000086118498889FEF7C1FD4FF480701649B6
:102B00000861400048610020144908608020124993
:102B10004861086180000861401008614000486118
:102B200000200E49086080200B4948610861800040
:102B30000861401008614000486106484088401E16
:102B4000001206490860802003494861086180003E
:102B5000086105E0F8020020001001400C0C014063
:102B60004010086140004861FE488078401EC0B2B5
:102B7000FD4908608020FD494861086180000861C6
:102B800026E0082D1CD2DFE805F004070A0D0F121D
:102B9000151844F0300413E044F0100410E044F041
:102BA00020040DE000BF0BE044F0380408E044F0DE
:102BB000280405E044F0180402E044F0080400BFD3
:102BC00000BF032744F4805421463846FEF764FDD5
:102BD000F0BD2DE9F0410446BE20FEF74FFD4FF455
:102BE0008070E2490861400048610520DE490860C4
:102BF0008020DE494861086180000861401008615A
:102C000040004861204608F07BFA05464FF06632E6
:102C1000D74B08F0C5FA074608F02EFAD2490860EB
:102C20008020D24948610861800008614010086135
:102C3000400048610120CC4908608020CB494861B0
:102C40000861800008614010086140004861FF2071
:102C5000C54908608020C549486108618000086155
:102C600040100861400048610020BF490860802092
:102C7000BE49486108618000086140100861400059
:102C800048610020B84908608020B849486108615F
:102C900080000861BDE8F08110B50446002C66D1C3
:102CA000B0498871F02008804FF4A0704880084631
:102CB000808849F2413188420BD0AA48808846F684
:102CC0000401884205D0A748808845F21031884227
:102CD0001AD12C20A34908812A2048812B208881E1
:102CE0000846808846F60401884205D09D488088C1
:102CF00045F21031884206D14FF4A07099490880FE
:102D00004FF4F0704880A1E09648808845F2105159
:102D1000884210D14FF43050924908814FF4285026
:102D200048814FF42C5088814FF4F07008804FF4A4
:102D3000487048808AE08B48808841F66311884259
:102D40000DD12C20874908812B2048812A20888199
:102D50004FF4F07008804FF44870488076E02220ED
:102D60008049088120204881212088816EE001204F
:102D70007C4988714FF4A0700880F0204880084694
:102D8000808849F24131884205D07648808845F2F2
:102D90001031884207D12C20724908812A204881AD
:102DA0002B2088813FE06F48808846F604018842E6
:102DB00007D12C206B4908812B2048812A2088814B
:102DC00031E06848808845F21051884210D14FF4B4
:102DD0003050644908814FF4285048814FF42C50FA
:102DE00088814FF4487008804FF4F07048801AE0F2
:102DF0005C48808841F6631188420DD12C205949E6
:102E000008812A2048812B2088814FF4487008804F
:102E10004FF4F070488006E02220524908812120BA
:102E20004881202088814F48808846F604018842E6
:102E300005D04C48808845F21031884206D14FF4C5
:102E4000F070484908804FF4A07048800020FFF7D8
:102E500093FC10BD2DE9F04F86B004460D46904618
:102E6000994604EB0800401E86B205EB0900401E9F
:102E700087B23C48808849F24131884215D03948B0
:102E8000808845F2103188420FD03648808846F657
:102E90000401884209D03348807901286AD1314839
:102EA000808841F6631188427ED12E494889FEF719
:102EB000E5FB4FF480702D49086140004861201205
:102EC000294908608020294948610861800008611B
:102ED0004010086140004861E0B22349086080204A
:102EE0002249486108618000086140100861400083
:102EF000486130121C49086080201C494861086103
:102F0000800008614010086140004861F0B2164935
:102F100008608020154948610861800008611149F6
:102F20008889FEF7ABFB4FF48070104908614000C0
:102F3000486128120C49086080200C4948610861EA
:102F4000800008614010086140004861E8B206490D
:102F500008608020054948610861800008614010D0
:102F6000086108E0F80200200C0C0140001001404C
:102F70006666044018E0400048613812FE49086067
:102F80008020FE49486108618000086140100861A6
:102F900040004861F8B2F84908608020F74948616C
:102FA0000861800008616FE1F548808841F663118F
:102FB00088427DD1F2480088A0EB0800001B84B253
:102FC00005EB0900401E1FFA80F9ED494889FEF71C
:102FD00055FB4FF48070E9490861400048612012B8
:102FE000E54908608020E549486108618000086182
:102FF0004010086140004861E0B2DF49086080206D
:10300000DE494861086180000861401008614000A5
:10301000486104EB0800401E0012D7490860802078
:10302000D64948610861800008614010086140008D
:10303000486104EB0800401EC0B2CF490860802000
:10304000CE494861086180000861CD498889FEF752
:1030500015FB4FF48070C94908614000486128128F
:10306000C54908608020C549486108618000086141
:103070004010086140004861E8B2BF490860802004
:10308000BE49486108618000086140100861400045
:1030900048614FEA2920B84908608020B749486153
:1030A000086180000861401008614000486100E04C
:1030B0000AE009F0FF00B04908608020AF4948618C
:1030C000086180000861DFE0AD48808845F210515A
:1030D00088427DD1AA494889FEF7D0FA4FF4807022
:1030E000A6490861400048612012A3490860802079
:1030F000A2494861086180000861A1494989491CC9
:1031000088B2FEF7BBFA4FF480709C49086140001A
:103110004861E0B298490860802098494861086198
:103120008000086196494989891C88B2FEF7A6FA91
:103130004FF48070914908614000486130128E4917
:10314000086080208D4948610861800008618C49D1
:103150004989C91C88B2FEF791FA4FF480708749FB
:10316000086140004861F0B28349086080208349CB
:10317000486108618000086181498889FEF77EFA0C
:103180004FF480707D4908614000486128127A49F7
:1031900008608020794948610861800008617849A9
:1031A0008989491C88B2FEF769FA4FF48070734927
:1031B000086140004861E8B26F49086080206F49AB
:1031C00048610861800008616D498989891C00E0B7
:1031D00027E088B2FEF752FA4FF480706749086121
:1031E00040004861381264490860802063494861A2
:1031F00008618000086162498989C91C88B2FEF7AC
:103200003DFA4FF480705D49086140004861F8B2B2
:103210005949086080205949486108618000086167
:1032200032E05748807901280ED1AA46BB4654485F
:103230000088801B401E80B2019051480088001B0E
:10324000401E80B2009003E0A246B346019500976D
:10325000502005905120049052200390532002905A
:1032600051460598FEF718FA59460498FEF714FAE5
:1032700001990398FEF710FA00990298FEF70CFAEC
:1032800029462046FEF751FC06B0BDE8F08F70B528
:10329000044600263A4805884088454338488088D7
:1032A00046F60401884216D135488079012812D1AA
:1032B0000020334988712A2048812B2088810021F1
:1032C0000846FEF732FC01202D4988712B204881E9
:1032D0002A20888103E000210846FEF726FCFEF73D
:1032E0001EFC00260DE04FF4807024490861400068
:1032F00048612148046080204861086180000861BD
:10330000761CAE42EFD370BD08B50121192006F03E
:1033100067FF01211B4806F078FD4FF4F860ADF817
:10332000000010208DF8030003208DF8020069468C
:10333000124806F099FC4FF4F861104806F041FD80
:103340004FF6FF70ADF8000069460B480C3806F0E8
:103350008BFC4FF6FF7108480C3806F032FD322026
:1033600006F0C7FA01210020FEF796F9322006F098
:10337000C0FA002008E000000C0C014000100140E1
:10338000F802002000023000FFF76BF8FE49888049
:1033900008468088FF280ADB084680884FF6FF71C0
:1033A000884204D0F8488088B0F5134F7ED1D320EE
:1033B000FEF764F9FFF724F8FFF722F8FFF720F88B
:1033C000F1498880084680884FF6FF7101EA0020A5
:1033D000ED498880FFF714F8EB4989880843EA49EA
:1033E00088800846808849F2413188425ED0BF20FB
:1033F000FEF744F9FFF704F8FFF702F8FFF700F8CB
:10340000FEF7FEFFE0498880084680884FF6FF718E
:1034100001EA0020DC498880FEF7F2FFDA4989885A
:103420000843D94988800846808846F604018842C6
:1034300074D0D420FEF722F9FEF7E2FFFEF7E0FF9A
:10344000FEF7DEFFD0498880084680884FF6FF717E
:1034500001EA0020CC498880FEF7D2FFCA4989885A
:103460000843C94988800846808845F2103188425F
:1034700054D04FF45A40FEF701F9FEF7C1FF4FF464
:103480005B40FEF7FBF8FEF7BBFFBF4988800846AC
:1034900080884FF6FF7101EA0020BB4988804FF415
:1034A0005C40FEF7EBF8FEF7ABFF00E036E0B64914
:1034B00089880843B449888008468088B0F5004F61
:1034C00002D145F210508880AF48808845F21051F3
:1034D000884223D0A120FEF7D1F8FEF791FFAA4938
:1034E0008880FEF78DFFA8498880084680884FF6BF
:1034F000FF7101EA0020A4498880FEF781FFA249FC
:1035000089880843A04988800846808845F261710F
:10351000884203D141F663109B4988809A4881888C
:103520009AA007F055F99848808849F241318842BD
:103530007ED1CF20FEF7A2F80020FEF753FFC12076
:10354000FEF750FF3020FEF74DFFED20FEF796F816
:103550006420FEF747FF0320FEF744FF1220FEF72A
:1035600041FF8120FEF73EFFE820FEF787F8852027
:10357000FEF738FF1020FEF735FF7A20FEF732FF06
:10358000CB20FEF77BF83920FEF72CFF2C20FEF72E
:1035900029FF0020FEF726FF3420FEF723FF02203C
:1035A000FEF720FFF720FEF769F82020FEF71AFF4C
:1035B000EA20FEF763F80020FEF714FF0020FEF774
:1035C00011FFC020FEF75AF81B20FEF70BFFC120A9
:1035D000FEF754F80120FEF705FFC520FEF74EF870
:1035E0003020FEF7FFFE3020FEF7FCFEC720FEF77E
:1035F00045F8B720FEF7F6FE3620FEF73FF84820E4
:10360000FEF7F0FE3A20FEF739F85520FEF7EAFE05
:10361000B120FEF733F80020FEF7E4FE1A20FEF793
:10362000E1FEB620FEF72AF80A20FEF7DBFE00E0F6
:1036300097E0A220FEF7D6FEF220FEF71FF800204A
:10364000FEF7D0FE2620FEF719F80120FEF7CAFE8D
:10365000E020FEF713F80F20FEF7C4FE2A20FEF745
:10366000C1FE2820FEF7BEFE0820FEF7BBFE0E209E
:10367000FEF7B8FE0820FEF7B5FE5420FEF7B2FEB6
:10368000A920FEF7AFFE4320FEF7ACFE0A20FEF7AE
:10369000A9FE0F20FEF7A6FE0020FEF7A3FE0020E5
:1036A000FEF7A0FE0020FEF79DFE0020FEF79AFE2A
:1036B000E120FDF7E3FF0020FEF794FE1520FEF762
:1036C00091FE1720FEF78EFE0720FEF78BFE1120DD
:1036D000FEF788FE0620FEF785FE2B20FEF782FE11
:1036E0005620FEF77FFE3C20FEF77CFE0520FEF70D
:1036F00079FE1020FEF776FE0F20FEF773FE3F20C6
:10370000FEF770FE3F20FEF76DFE0F20FEF76AFE0B
:103710002B20FDF7B3FF0020FEF764FE0020FEF72C
:1037200061FE0120FEF75EFE3F20FEF75BFE2A20D1
:10373000FDF7A4FF0020FEF755FE0020FEF752FE25
:103740000020FEF74FFEEF20FEF74CFE1120FDF7A4
:1037500095FF782006F0CDF82920FDF78FFF03F0C4
:10376000A4BB0948808846F6040188427ED1112016
:10377000FDF784FF142006F0BCF8D020FDF77EFF93
:103780000720FEF72FFE09E0F8020020204C4344FA
:103790002049443A25780D0A000000004220FEF737
:1037A00021FE1D20FEF71EFED120FDF767FF002041
:1037B000FEF718FE1A20FEF715FE0920FEF712FE8E
:1037C000D220FDF75BFF0120FEF70CFE2220FEF762
:1037D00009FEC020FDF752FF1020FEF703FE3B203C
:1037E000FEF700FE0020FEF7FDFD0220FEF7FAFDC9
:1037F0001120FEF7F7FDC520FDF740FF0320FEF77F
:10380000F1FDC820FDF73AFF0020FEF7EBFD252073
:10381000FEF7E8FD2120FEF7E5FD0520FEF7E2FDBD
:103820000020FEF7DFFD0A20FEF7DCFD6520FEF735
:10383000D9FD2520FEF7D6FD7720FEF7D3FD5020D9
:10384000FEF7D0FD0F20FEF7CDFD0020FEF7CAFDEC
:10385000F820FDF713FF0120FEF7C4FDFE20FDF761
:103860000DFF0020FEF7BEFD022000E035E0FEF770
:10387000B9FD2020FDF702FF3620FDF7FFFE0820EE
:10388000FEF7B0FD3A20FDF7F9FE5520FEF7AAFD40
:103890002B20FDF7F3FE0020FEF7A4FD0020FEF72D
:1038A000A1FD0120FEF79EFD3F20FEF79BFD2A2093
:1038B000FDF7E4FE0020FEF795FD0020FEF792FDE7
:1038C0000120FEF78FFDDF20FEF78CFD782006F04B
:1038D00010F82920FDF7D2FE41E7FE48808845F226
:1038E0001031884240F07C87ED20FDF7C7FE0120B3
:1038F000FEF778FDFE20FEF775FDEE20FDF7BEFE1B
:10390000DE20FEF76FFD2120FEF76CFDF120FDF7B4
:10391000B5FE0120FEF766FDDF20FDF7AFFE1020AB
:10392000FEF760FDC420FDF7A9FE8F20FEF75AFDCB
:10393000C620FDF7A3FE0020FEF754FDE220FEF7AF
:1039400051FDE220FEF74EFDE220FEF74BFDBF20C9
:10395000FDF794FEAA20FEF745FDB020FDF78EFE90
:103960000D20FEF73FFD0020FEF73CFD0D20FEF789
:1039700039FD0020FEF736FD1120FEF733FD002053
:10398000FEF730FD1920FEF72DFD0020FEF72AFD81
:103990002120FEF727FD0020FEF724FD2D20FEF755
:1039A00021FD0020FEF71EFD3D20FEF71BFD00203F
:1039B000FEF718FD5D20FEF715FD0020FEF712FD55
:1039C0005D20FEF70FFD0020FEF70CFDB120FDF796
:1039D00055FE8020FEF706FD0020FEF703FD8B203C
:1039E000FEF700FD0020FEF7FDFC9620FEF7FAFC36
:1039F0000020FEF7F7FCB220FDF740FE0020FEF7A6
:103A0000F1FC0020FEF7EEFC0220FEF7EBFC0020AC
:103A1000FEF7E8FC0320FEF7E5FC0020FEF7E2FCE1
:103A2000B320FDF72BFE0020FEF7DCFC0020FEF7A4
:103A3000D9FC0020FEF7D6FC0020FEF7D3FC0020C6
:103A4000FEF7D0FC0020FEF7CDFC0020FEF7CAFCFC
:103A50000020FEF7C7FC0020FEF7C4FC0020FEF7A4
:103A6000C1FC0020FEF7BEFC0020FEF7BBFC0020DE
:103A7000FEF7B8FC0020FEF7B5FC0020FEF7B2FC14
:103A80000020FEF7AFFC0020FEF7ACFC0020FEF7A4
:103A9000A9FC0020FEF7A6FC0020FEF7A3FC0020F6
:103AA000FEF7A0FC0020FEF79DFC0020FEF79AFC2C
:103AB0000020FEF797FCB420FDF7E0FD8B20FEF719
:103AC00091FC0020FEF78EFC9620FEF78BFC002078
:103AD000FEF788FCA120FEF785FC0020FEF782FCA3
:103AE000B520FDF7CBFD0220FEF77CFC0020FEF7A1
:103AF00079FC0320FEF776FC0020FEF773FC04201F
:103B0000FEF770FC0020FEF76DFCB620FDF7B6FD59
:103B10000020FEF767FC0020FEF764FCB720FDF7ED
:103B2000ADFD0020FEF75EFC0020FEF75BFC3F20B1
:103B3000FEF758FC0020FEF755FC5E20FEF752FC15
:103B40000020FEF74FFC6420FEF74CFC0020FEF73F
:103B500049FC8C20FEF746FC0020FEF743FCAC201D
:103B6000FEF740FC0020FEF73DFCDC20FEF73AFCAF
:103B70000020FEF737FC7020FEF734FC0020FEF733
:103B800031FC9020FEF72EFC0020FEF72BFCEB20F2
:103B9000FEF728FC0020FEF725FCDC20FEF722FCC7
:103BA0000020FEF71FFCB820FDF768FD0020FEF79F
:103BB00019FC0020FEF716FC0020FEF713FC002085
:103BC000FEF710FC0020FEF70DFC0020FEF70AFCBB
:103BD0000020FEF707FC0020FEF704FCBA20FDF7EA
:103BE0004DFD2420FEF7FEFB0020FEF7FBFB00202E
:103BF000FEF7F8FB0020FEF7F5FBC120FDF73EFDC8
:103C00002020FEF7EFFB0020FEF7ECFB5420FEF730
:103C1000E9FB0020FEF7E6FBFF20FEF7E3FB0020B8
:103C2000FEF7E0FBC220FDF729FD0A20FEF7DAFBD4
:103C30000020FEF7D7FB0420FEF7D4FB0020FEF7A0
:103C4000D1FBC320FDF71AFD3C20FEF7CBFB002083
:103C5000FEF7C8FB3A20FEF7C5FB0020FEF7C2FBCB
:103C60003920FEF7BFFB0020FEF7BCFB3720FEF734
:103C7000B9FB0020FEF7B6FB3C20FEF7B3FB0020AB
:103C8000FEF7B0FB3620FEF7ADFB0020FEF7AAFBE7
:103C90003220FEF7A7FB0020FEF7A4FB2F20FEF743
:103CA000A1FB0020FEF79EFB2C20FEF79BFB0020D3
:103CB000FEF798FB2920FEF795FB0020FEF792FB0C
:103CC0002620FEF78FFB0020FEF78CFB2420FEF75A
:103CD00089FB01E0F80200200020FEF783FB24208E
:103CE000FEF780FB0020FEF77DFB2320FEF77AFB2A
:103CF0000020FEF777FB3C20FEF774FB0020FEF768
:103D000071FB3620FEF76EFB0020FEF76BFB3220C6
:103D1000FEF768FB0020FEF765FB2F20FEF762FB35
:103D20000020FEF75FFB2C20FEF75CFB0020FEF777
:103D300059FB2920FEF756FB0020FEF753FB2620F7
:103D4000FEF750FB0020FEF74DFB2420FEF74AFB58
:103D50000020FEF747FB2420FEF744FB0020FEF77F
:103D600041FB2320FEF73EFB0020FEF73BFBC42077
:103D7000FDF784FC6220FEF735FB0020FEF732FBE6
:103D80000520FEF72FFB0020FEF72CFB8420FEF71A
:103D900029FB0020FEF726FBF020FEF723FB002086
:103DA000FEF720FB1820FEF71DFB0020FEF71AFB94
:103DB000A420FEF717FB0020FEF714FB1820FEF7E7
:103DC00011FB0020FEF70EFB5020FEF70BFB00203E
:103DD000FEF708FB0C20FEF705FB0020FEF702FBB8
:103DE0001720FEF7FFFA0020FEF7FCFA9520FEF7F9
:103DF000F9FA0020FEF7F6FAF320FEF7F3FA0020B6
:103E0000FEF7F0FAE620FEF7EDFA0020FEF7EAFAF8
:103E1000C520FDF733FC3220FEF7E4FA0020FEF760
:103E2000E1FA4420FEF7DEFA0020FEF7DBFA652017
:103E3000FEF7D8FA0020FEF7D5FA7620FEF7D2FA80
:103E40000020FEF7CFFA8820FEF7CCFA0020FEF71C
:103E5000C9FAC620FDF712FC2020FEF7C3FA0020A5
:103E6000FEF7C0FA1720FEF7BDFA0020FEF7BAFAF7
:103E70000120FEF7B7FA0020FEF7B4FAC720FDF7DD
:103E8000FDFB0020FEF7AEFA0020FEF7ABFA0020A3
:103E9000FEF7A8FA0020FEF7A5FAC820FDF7EEFB12
:103EA0000020FEF79FFA0020FEF79CFA0020FEF7A4
:103EB00099FA0020FEF796FAC920FDF7DFFB0020F3
:103EC000FEF790FA0020FEF78DFA0020FEF78AFA3E
:103ED0000020FEF787FA0020FEF784FA0020FEF7A4
:103EE00081FA0020FEF77EFA0020FEF77BFA002020
:103EF000FEF778FA0020FEF775FA0020FEF772FA56
:103F00000020FEF76FFA0020FEF76CFA0020FEF7A3
:103F100069FA0020FEF766FA0020FEF763FAE02057
:103F2000FDF7ACFB1620FEF75DFA0020FEF75AFA0B
:103F30001C20FEF757FA0020FEF754FA2120FEF766
:103F400051FA0020FEF74EFA3620FEF74BFA002019
:103F5000FEF748FA4620FEF745FA0020FEF742FA3F
:103F60005220FEF73FFA0020FEF73CFA6420FEF7ED
:103F700039FA0020FEF736FA7A20FEF733FA0020ED
:103F8000FEF730FA8B20FEF72DFA0020FEF72AFA12
:103F90009920FEF727FA0020FEF724FAA820FEF762
:103FA00021FA0020FEF71EFAB920FEF71BFA0020C6
:103FB000FEF718FAC420FEF715FA0020FEF712FAF1
:103FC000CA20FEF70FFA0020FEF70CFAD220FEF707
:103FD00009FA0020FEF706FAD920FEF703FA0020BE
:103FE000FEF700FAE020FEF7FDF90020FEF7FAF9EF
:103FF000F320FEF7F7F90020FEF7F4F9E120FDF7D2
:104000003DFB1620FEF7EEF90020FEF7EBF91C2031
:10401000FEF7E8F90020FEF7E5F92220FEF7E2F9C5
:104020000020FEF7DFF93620FEF7DCF90020FEF76E
:10403000D9F94520FEF7D6F90020FEF7D3F9522032
:10404000FEF7D0F90020FEF7CDF96420FEF7CAF99B
:104050000020FEF7C7F97A20FEF7C4F90020FEF72A
:10406000C1F98B20FEF7BEF90020FEF7BBF99920BD
:10407000FEF7B8F90020FEF7B5F9A820FEF7B2F96F
:104080000020FEF7AFF9B920FEF7ACF90020FEF7EB
:10409000A9F9C420FEF7A6F90020FEF7A3F9CA206B
:1040A000FEF7A0F90020FEF79DF9D220FEF79AF95D
:1040B0000020FEF797F9D820FEF794F90020FEF7CC
:1040C00091F9E020FEF78EF90020FEF78BF9F3203E
:1040D000FEF788F90020FEF785F9E220FDF7CEFA19
:1040E0000520FEF77FF90020FEF77CF90B20FEF794
:1040F00079F90020FEF776F91B20FEF773F900200E
:10410000FEF770F93420FEF76DF90020FEF76AF92A
:104110004420FEF767F90020FEF764F94F20FEF710
:1041200061F90020FEF75EF96120FEF75BF90020DF
:10413000FEF758F97920FEF755F90020FEF752F9FD
:104140008820FEF74FF90020FEF74CF99720FEF784
:1041500049F90020FEF746F9A620FEF743F90020B2
:10416000FEF740F9B720FEF73DF90020FEF73AF9D7
:10417000C220FEF737F90020FEF734F9C720FEF71A
:1041800031F90020FEF72EF9D120FEF72BF900209F
:10419000FEF728F9D620FEF725F90020FEF722F9D0
:1041A000DD20FEF71FF90020FEF71CF9F320FEF7D3
:1041B00019F90020FEF716F9E320FDF75FFA052054
:1041C000FEF710F90020FEF70DF90A20FEF70AF9B4
:1041D0000020FEF707F91C20FEF704F90020FEF787
:1041E00001F93320FEF7FEF80020FEF7FBF844202B
:1041F000FEF7F8F80020FEF7F5F85020FEF7F2F889
:104200000020FEF7EFF86220FEF7ECF80020FEF742
:10421000E9F87820FEF7E6F80020FEF7E3F88820BA
:10422000FEF7E0F80020FEF7DDF89720FEF7DAF859
:104230000020FEF7D7F8A620FEF7D4F80020FEF7FE
:10424000D1F8B720FEF7CEF80020FEF7CBF8C22059
:10425000FEF7C8F80020FEF7C5F8C720FEF7C2F841
:104260000020FEF7BFF8D120FEF7BCF80020FEF7D3
:10427000B9F8D520FEF7B6F80020FEF7B3F8DD2038
:10428000FEF7B0F80020FEF7ADF8F320FEF7AAF82D
:104290000020FEF7A7F8E420FDF7F0F90120FEF773
:1042A000A1F80020FEF79EF80120FEF79BF8002001
:1042B000FEF798F80220FEF795F80020FEF792F836
:1042C0002A20FEF78FF80020FEF78CF83C20FEF73E
:1042D00089F80020FEF786F84B20FEF783F80020CF
:1042E000FEF780F85D20FEF77DF80020FEF77AF8F3
:1042F0007420FEF777F80020FEF774F88420FEF7AC
:1043000071F80020FEF76EF89320FEF76BF800209E
:10431000FEF768F8A220FEF765F80020FEF762F8C5
:10432000B320FEF75FF80020FEF75CF8BE20FEF732
:1043300059F80020FEF756F8C420FEF753F8002085
:10434000FEF750F8CD20FEF74DF80020FEF74AF8B2
:10435000D320FEF747F80020FEF744F8DD20FEF7F3
:1043600041F80020FEF73EF8F320FEF73BF800206E
:10437000FEF738F8E520FDF781F90020FEF732F866
:104380000020FEF72FF80020FEF72CF80020FEF7A3
:1043900029F80220FEF726F80020FEF723F829204E
:1043A000FEF720F80020FEF71DF83C20FEF71AF873
:1043B0000020FEF717F84B20FEF714F80020FEF758
:1043C00011F85D20FEF70EF80020FEF70BF87420C0
:1043D000FEF708F80020FEF705F88420FEF702F843
:1043E0000020FDF7FFFF9320FDF7FCFF0020FDF705
:1043F000F9FFA220FDF7F6FF0020FDF7F3FFB32041
:10440000FDF7F0FF0020FDF7EDFFBE20FDF7EAFF0E
:104410000020FDF7E7FFC420FDF7E4FF0020FDF7D3
:10442000E1FFCD20FDF7DEFF0020FDF7DBFFD3200D
:10443000FDF7D8FF0020FDF7D5FFDC20FDF7D2FF08
:104440000020FDF7CFFFF320FDF7CCFF0020FDF7A4
:10445000C9FFE620FDF712F91120FDF7C3FF002088
:10446000FDF7C0FF3420FDF7BDFF0020FDF7BAFFC8
:104470005620FDF7B7FF0020FDF7B4FF7620FDF7CB
:10448000B1FF0020FDF7AEFF7720FDF7ABFF002066
:10449000FDF7A8FF6620FDF7A5FF0020FDF7A2FFAE
:1044A0008820FDF79FFF0020FDF79CFF9920FDF776
:1044B00099FF0020FDF796FFBB20FDF793FF00203A
:1044C000FDF790FF9920FDF78DFF0020FDF78AFF93
:1044D0006620FDF787FF0020FDF784FF5520FDF7DC
:1044E00081FF0020FDF77EFF5520FDF77BFF0020B8
:1044F000FDF778FF4520FDF775FF0020FDF772FFFF
:104500004320FDF76FFF0020FDF76CFF4420FDF70F
:1045100069FF0020FDF766FFE720FDF7AFF83220C6
:10452000FDF760FF0020FDF75DFF5520FDF75AFF06
:104530000020FDF757FF7620FDF754FF0020FDF720
:1045400051FF6620FDF74EFF0020FDF74BFF67206F
:10455000FDF748FF0020FDF745FF6720FDF742FF0C
:104560000020FDF73FFF8720FDF73CFF0020FDF70F
:1045700039FF9920FDF736FF0020FDF733FFBB2000
:10458000FDF730FF0020FDF72DFF9920FDF72AFFF2
:104590000020FDF727FF7720FDF724FF0020FDF71F
:1045A00021FF4420FDF71EFF0020FDF71BFF5620D2
:1045B000FDF718FF0020FDF715FF2320FDF712FF80
:1045C0000020FDF70FFF3320FDF70CFF0020FDF763
:1045D00009FF4520FDF706FF0020FDF703FFE82057
:1045E000FDF74CF80020FDF7FDFE0020FDF7FAFE78
:1045F0009920FDF7F7FE0020FDF7F4FE8720FDF778
:10460000F1FE0020FDF7EEFE8820FDF7EBFE002016
:10461000FDF7E8FE7720FDF7E5FE0020FDF7E2FE5E
:104620006620FDF7DFFE0020FDF7DCFE8820FDF7A9
:10463000D9FE0020FDF7D6FEAA20FDF7D3FE00200C
:10464000FDF7D0FEBB20FDF7CDFE0020FDF7CAFE32
:104650009920FDF7C7FE0020FDF7C4FE6620FDF798
:10466000C1FE0020FDF7BEFE5520FDF7BBFE002079
:10467000FDF7B8FE5520FDF7B5FE0020FDF7B2FEB0
:104680004420FDF7AFFE0020FDF7ACFE4420FDF70F
:10469000A9FE0020FDF7A6FE5520FDF7A3FE002091
:1046A000FDF7A0FEE920FCF7E9FFAA20FDF79AFE3E
:1046B0000020FDF797FE0020FDF794FE0020FDF797
:1046C00091FE0020FCF7DAFFAA20FDF78BFECF2039
:1046D000FCF7D4FF0020FDF785FE0020FDF782FEE9
:1046E0000020FDF77FFE0020FDF77CFE0020FDF797
:1046F00079FE0020FDF776FE0020FDF773FE002016
:10470000FDF770FE0020FDF76DFE0020FDF76AFE4C
:104710000020FDF767FE0020FDF764FE0020FDF796
:1047200061FE0020FDF75EFE0020FDF75BFE00202D
:10473000FDF758FE0020FDF755FEF020FCF79EFF28
:104740000020FDF74FFE5020FDF74CFE0020FDF746
:1047500049FE0020FDF746FE0020FDF743FEF32052
:10476000FCF78CFF0020FDF73DFEF920FCF786FFEB
:104770000620FDF737FE1020FDF734FE2920FDF757
:1047800031FE0020FDF72EFE3A20FCF777FF552082
:10479000FDF728FE1120FCF771FF642005F0A9F851
:1047A0002920FCF76BFF3520FCF768FF0020FDF7A0
:1047B00019FE5120FCF762FFFF20FDF713FE532086
:1047C000FCF75CFF2C20FDF70DFE5520FCF756FF93
:1047D0008220FDF707FE2C20FCF750FF02F065BB9E
:1047E000FE48808845F2105188427DD155214FF412
:1047F0007040FCF751FFAA214FF20100FCF74CFF7B
:1048000052214FF20200FCF747FF08214FF203004C
:10481000FCF742FF01214FF20400FCF73DFF0D21A0
:104820004FF43040FCF738FF0D214BF20100FCF74C
:1048300033FF0D214BF20200FCF72EFF34214FF421
:104840003640FCF729FF34214BF20160FCF724FFCE
:1048500034214BF20260FCF71FFF0D214FF4314071
:10486000FCF71AFF0D214BF20110FCF715FF0D218B
:104870004BF20210FCF710FF34214FF43740FCF7E5
:104880000BFF34214BF20170FCF706FF34214BF291
:104890000270FCF701FF00214FF43240FCF7FCFEF0
:1048A00000214BF20120FCF7F7FE00214BF2022021
:1048B000FCF7F2FE24214FF43840FCF7EDFE2421F2
:1048C0004BF60100FCF7E8FE24214BF60200FCF752
:1048D000E3FE01214FF43F40FCF7DEFE0F214FF4D1
:1048E0003340FCF7D9FE00E0FDE30F214BF201302D
:1048F000FCF7D2FE0F214BF20230FCF7CDFE342143
:104900004FF43940FCF7C8FE34214BF60110FCF798
:10491000C3FE34214BF60210FCF7BEFE08214FF413
:104920003540FCF7B9FE08214BF20150FCF7B4FE0C
:1049300008214BF20250FCF7AFFE03214FF4424036
:10494000FCF7AAFE24214FF43A40FCF7A5FE2421EF
:104950004BF60120FCF7A0FE24214BF60220FCF7C9
:104960009BFE00214FF43C40FCF796FE78214BF66D
:104970000140FCF791FE00214BF60240FCF78CFE53
:1049800000214FF43D40FCF787FE78214BF60150A3
:10499000FCF782FE00214BF60250FCF77DFE002161
:1049A0004FF43E40FCF778FE64214BF60160FCF7C3
:1049B00073FE00214FF45140FCF76EFE33214DF29F
:1049C0000110FCF769FE00214DF20210FCF764FEB5
:1049D00034214DF20310FCF75FFE00214DF204106C
:1049E000FCF75AFE3A214DF20510FCF755FE002166
:1049F0004DF20610FCF750FE4A214DF20710FCF76D
:104A00004BFE00214DF20810FCF746FE5C214DF2F2
:104A10000910FCF741FE00214DF20A10FCF73CFEA4
:104A200081214DF20B10FCF737FE00214DF20C10E6
:104A3000FCF732FEA6214DF20D10FCF72DFE0021F1
:104A40004DF20E10FCF728FEE5214DF20F10FCF799
:104A500023FE01214DF21010FCF71EFE13214DF232
:104A60001110FCF719FE01214DF21210FCF714FE93
:104A700054214DF21310FCF70FFE01214DF21410DA
:104A8000FCF70AFE82214DF21510FCF705FE01210C
:104A90004DF21610FCF700FECA214DF21710FCF77C
:104AA000FBFD02214DF21810FCF7F6FD00214DF23E
:104AB0001910FCF7F1FD02214DF21A10FCF7ECFD84
:104AC00001214DF21B10FCF7E7FD02214DF21C10F5
:104AD000FCF7E2FD34214DF21D10FCF7DDFD022153
:104AE0004DF21E10FCF7D8FD67214DF21F10FCF7A8
:104AF000D3FD02214DF22010FCF7CEFD84214DF2B2
:104B00002110FCF7C9FD02214DF22210FCF7C4FD73
:104B1000A4214DF22310FCF7BFFD02214DF2241019
:104B2000FCF7BAFDB7214DF22510FCF7B5FD0221C7
:104B30004DF22610FCF7B0FDCF214DF22710FCF707
:104B4000ABFD02214DF22810FCF7A6FDDE214DF24F
:104B50002910FCF7A1FD02214DF22A10FCF79CFD63
:104B6000F2214DF22B10FCF797FD02214DF22C1093
:104B7000FCF792FDFE214DF22D10FCF78DFD032177
:104B80004DF22E10FCF788FD10214DF22F10FCF78E
:104B900083FD03214DF23010FCF77EFD33214DF2F1
:104BA0003110FCF779FD03214DF23210FCF774FD52
:104BB0006D214DF23310FCF76FFD00214FF4524090
:104BC000FCF76AFD33214DF20120FCF765FD002161
:104BD0004DF20220FCF760FD342101E0F8020020D4
:104BE0004DF20320FCF758FD00214DF20420FCF7A4
:104BF00053FD3A214DF20520FCF74EFD00214DF208
:104C00000620FCF749FD4A214DF20720FCF744FD40
:104C100000214DF20820FCF73FFD5C214DF20920F8
:104C2000FCF73AFD00214DF20A20FCF735FD812109
:104C30004DF20B20FCF730FD00214DF20C20FCF76B
:104C40002BFDA6214DF20D20FCF726FD00214DF293
:104C50000E20FCF721FDE5214DF20F20FCF71CFD95
:104C600001214DF21020FCF717FD13214DF2112008
:104C7000FCF712FD01214DF21220FCF70DFD54212D
:104C80004DF21320FCF708FD01214DF21420FCF732
:104C900003FD82214DF21520FCF7FEFC01214DF2AF
:104CA0001620FCF7F9FCCA214DF21720FCF7F4FCA2
:104CB00002214DF21820FCF7EFFC00214DF21920E3
:104CC000FCF7EAFC02214DF21A20FCF7E5FC012179
:104CD0004DF21B20FCF7E0FC02214DF21C20FCF7FA
:104CE000DBFC34214DF21D20FCF7D6FC02214DF2F5
:104CF0001E20FCF7D1FC67214DF21F20FCF7CCFCF5
:104D000002214DF22020FCF7C7FC84214DF2212026
:104D1000FCF7C2FC02214DF22220FCF7BDFCA421CD
:104D20004DF22320FCF7B8FC02214DF22420FCF7C1
:104D3000B3FCB7214DF22520FCF7AEFC02214DF269
:104D40002620FCF7A9FCCF214DF22720FCF7A4FC7C
:104D500002214DF22820FCF79FFCDE214DF2292094
:104D6000FCF79AFC02214DF22A20FCF795FCF22177
:104D70004DF22B20FCF790FC02214DF22C20FCF789
:104D80008BFCFE214DF22D20FCF786FC03214DF219
:104D90002E20FCF781FC10214DF22F20FCF77CFC2B
:104DA00003214DF23020FCF777FC33214DF2312006
:104DB000FCF772FC03214DF23220FCF76DFC6D21F3
:104DC0004DF23320FCF768FC00214FF45340FCF710
:104DD00063FC33214DF20130FCF75EFC00214DF203
:104DE0000230FCF759FC34214DF20330FCF754FC3F
:104DF00000214DF20430FCF74FFC3A214DF2053012
:104E0000FCF74AFC00214DF20630FCF745FC4A2134
:104E10004DF20730FCF740FC00214DF20830FCF762
:104E20003BFC5C214DF20930FCF736FC00214DF2D1
:104E30000A30FCF731FC81214DF20B30FCF72CFCE1
:104E400000214DF20C30FCF727FCA6214DF20D306D
:104E5000FCF722FC00214DF20E30FCF71DFCE52191
:104E60004DF20F30FCF718FC01214DF21030FCF729
:104E700013FC13214DF21130FCF70EFC01214DF211
:104E80001230FCF709FC54214DF21330FCF704FCFE
:104E900001214DF21430FCF7FFFB82214DF2153059
:104EA000FCF7FAFB01214DF21630FCF7F5FBCA21A5
:104EB0004DF21730FCF7F0FB02214DF21830FCF7F1
:104EC000EBFB00214DF21930FCF7E6FB02214DF21D
:104ED0001A30FCF7E1FB01214DF21B30FCF7DCFB43
:104EE00002214DF21C30FCF7D7FB34214DF21D306E
:104EF000FCF7D2FB02214DF21E30FCF7CDFB6721FF
:104F00004DF21F30FCF7C8FB02214DF22030FCF7B8
:104F1000C3FB84214DF22130FCF7BEFB02214DF290
:104F20002230FCF7B9FBA4214DF22330FCF7B4FB8F
:104F300002214DF22430FCF7AFFBB7214DF22530B2
:104F4000FCF7AAFB02214DF22630FCF7A5FBCF218E
:104F50004DF22730FCF7A0FB02214DF22830FCF780
:104F60009BFBDE214DF22930FCF796FB02214DF22E
:104F70002A30FCF791FBF2214DF22B30FCF78CFB31
:104F800002214DF22C30FCF787FBFE214DF22D3033
:104F9000FCF782FB03214DF22E30FCF77DFB102144
:104FA0004DF22F30FCF778FB03214DF23030FCF747
:104FB00073FB33214DF23130FCF76EFB03214DF2D0
:104FC0003230FCF769FB6D214DF23330FCF764FBA6
:104FD00000214FF45440FCF75FFB33214DF20140B8
:104FE000FCF75AFB00214DF20240FCF755FB34213F
:104FF0004DF20340FCF750FB00214DF20440FCF75A
:105000004BFB3A214DF20540FCF746FB00214DF2E7
:105010000640FCF741FB4A214DF20740FCF73CFB00
:1050200000214DF20840FCF737FB5C214DF20940AE
:10503000FCF732FB00214DF20A40FCF72DFB8121E9
:105040004DF20B40FCF728FB00214DF20C40FCF721
:1050500023FBA6214DF20D40FCF71EFB00214DF273
:105060000E40FCF719FBE5214DF20F40FCF714FB55
:1050700001214DF21040FCF70FFB13214DF21140BE
:10508000FCF70AFB01214DF21240FCF705FB54210D
:105090004DF21340FCF700FB01214DF21440FCF7E8
:1050A000FBFA82214DF21540FCF7F6FA01214DF290
:1050B0001640FCF7F1FACA214DF21740FCF7ECFA62
:1050C00002214DF21840FCF7E7FA00214DF2194099
:1050D000FCF7E2FA02214DF21A40FCF7DDFA012159
:1050E0004DF21B4000E006E3FCF7D6FA02214DF238
:1050F0001C40FCF7D1FA34214DF21D40FCF7CCFAEC
:1051000002214DF21E40FCF7C7FA67214DF21F4005
:10511000FCF7C2FA02214DF22040FCF7BDFA8421CF
:105120004DF22140FCF7B8FA02214DF22240FCF783
:10513000B3FAA4214DF22340FCF7AEFA02214DF25E
:105140002440FCF7A9FAB7214DF22540FCF7A4FA58
:1051500002214DF22640FCF79FFACF214DF2274065
:10516000FCF79AFA02214DF22840FCF795FADE216D
:105170004DF22940FCF790FA02214DF22A40FCF74B
:105180008BFAF2214DF22B40FCF786FA02214DF208
:105190002C40FCF781FAFE214DF22D40FCF77CFA01
:1051A00003214DF22E40FCF777FA10214DF22F40EB
:1051B000FCF772FA03214DF23040FCF76DFA33210F
:1051C0004DF23140FCF768FA03214DF23240FCF712
:1051D00063FA6D214DF23340FCF75EFA00214FF483
:1051E0005540FCF759FA33214DF20150FCF754FABF
:1051F00000214DF20250FCF74FFA34214DF20350DA
:10520000FCF74AFA00214DF20450FCF745FA3A2126
:105210004DF20550FCF740FA00214DF20650FCF724
:105220003BFA4A214DF20750FCF736FA00214DF2C5
:105230000850FCF731FA5C214DF20950FCF72CFACA
:1052400000214DF20A50FCF727FA81214DF20B5054
:10525000FCF722FA00214DF20C50FCF71DFAA621B2
:105260004DF20D50FCF718FA00214DF20E50FCF7EC
:1052700013FAE5214DF20F50FCF70EFA01214DF221
:105280001050FCF709FA13214DF21150FCF704FA03
:1052900001214DF21250FCF7FFF954214DF2135049
:1052A000FCF7FAF901214DF21450FCF7F5F98221CF
:1052B0004DF21550FCF7F0F901214DF21650FCF7B4
:1052C000EBF9CA214DF21750FCF7E6F902214DF235
:1052D0001850FCF7E1F900214DF21950FCF7DCF908
:1052E00002214DF21A50FCF7D7F901214DF21B5063
:1052F000FCF7D2F902214DF21C50FCF7CDF9342114
:105300004DF21D50FCF7C8F902214DF21E50FCF77A
:10531000C3F967214DF21F50FCF7BEF902214DF28F
:105320002050FCF7B9F984214DF22150FCF7B4F973
:1053300002214DF22250FCF7AFF9A4214DF2235087
:10534000FCF7AAF902214DF22450FCF7A5F9B72188
:105350004DF22550FCF7A0F902214DF22650FCF742
:105360009BF9CF214DF22750FCF796F902214DF21F
:105370002850FCF791F9DE214DF22950FCF78CF909
:1053800002214DF22A50FCF787F9F2214DF22B5001
:10539000FCF782F902214DF22C50FCF77DF9FE2139
:1053A0004DF22D50FCF778F903214DF22E50FCF709
:1053B00073F910214DF22F50FCF76EF903214DF2D5
:1053C0003050FCF769F933214DF23150FCF764F9A4
:1053D00003214DF23250FCF75FF96D214DF233504D
:1053E000FCF75AF900214FF45640FCF755F93321E8
:1053F0004DF20160FCF750F900214DF20260FCF71C
:105400004BF934214DF20360FCF746F900214DF2CF
:105410000460FCF741F93A214DF20560FCF73CF9D4
:1054200000214DF20660FCF737F94A214DF2076082
:10543000FCF732F900214DF20860FCF72DF95C21F0
:105440004DF20960FCF728F900214DF20A60FCF7E3
:1054500023F981214DF20B60FCF71EF900214DF27A
:105460000C60FCF719F9A6214DF20D60FCF714F958
:1054700000214DF20E60FCF70FF9E5214DF20F60AF
:10548000FCF70AF901214DF21060FCF705F9132130
:105490004DF21160FCF700F901214DF21260FCF7AA
:1054A000FBF854214DF21360FCF7F6F801214DF2A0
:1054B0001460FCF7F1F882214DF21560FCF7ECF86E
:1054C00001214DF21660FCF7E7F8CA214DF2176092
:1054D000FCF7E2F802214DF21860FCF7DDF800213C
:1054E0004DF21960FCF7D8F802214DF21A60FCF772
:1054F000D3F801214DF21B60FCF7CEF802214DF2EA
:105500001C60FCF7C9F834214DF21D60FCF7C4F8AB
:1055100002214DF21E60FCF7BFF867214DF21F60BB
:10552000FCF7BAF802214DF22060FCF7B5F88421AF
:105530004DF22160FCF7B0F802214DF22260FCF739
:10554000ABF8A4214DF22360FCF7A6F802214DF23E
:105550002460FCF7A1F8B7214DF22560FCF79CF818
:1055600002214DF22660FCF797F8CF214DF227601B
:10557000FCF792F802214DF22860FCF78DF8DE214D
:105580004DF22960FCF788F802214DF22A60FCF701
:1055900083F8F2214DF22B60FCF77EF802214DF2E8
:1055A0002C60FCF779F8FE214DF22D60FCF774F8C1
:1055B00003214DF22E60FCF76FF810214DF22F60A1
:1055C000FCF76AF803214DF23060FCF765F83321EF
:1055D0004DF23160FCF760F803214DF23260FCF7C8
:1055E0005BF86D214DF23360FCF756F855214FF40E
:1055F0007040FCF751F8AA214FF20100FCF74CF87B
:1056000052214FF20200FCF747F808214FF2030045
:10561000FCF742F800214FF20400FCF73DF8CC21E2
:105620004FF43140FCF738F800214BF20110FCF741
:1056300033F805214FF43640FCF72EF870214FF473
:105640003740FCF729F870214BF20170FCF724F881
:1056500001214FF43840FCF71FF803214BF60100FD
:10566000FCF71AF803214BF60200FCF715F80321AA
:105670004BF60300FCF710F802214FF43C40FCF716
:105680000BF800214BF60140FCF706F800214BF621
:105690000240FCF701F8D0214FF44940FBF7FCFF32
:1056A00002214CF60110FBF7F7FF50214CF60210D7
:1056B000FBF7F2FF50214CF60310FBF7EDFF5021F2
:1056C0004CF60410FBF7E8FF00214FF45450FBF7B1
:1056D000E3FF55214FF46850FBF7DEFF4FF488508D
:1056E000FBF7CCFF782004F0E0F84FF42450FBF7F0
:1056F000C5FF01F0DABBFE48808849F225318842B7
:105700007ED147F6F001E520FBF7C6FF4FF480712C
:105710000120FBF7C1FF4FF4E0610220FBF7BCFF63
:1057200041F230010320FBF7B7FF00210420FBF713
:10573000B3FF40F202210820FBF7AEFF0021092051
:10574000FBF7AAFF00210A20FBF7A6FF00210C208F
:10575000FBF7A2FF00210D20FBF79EFF00210F2089
:10576000FBF79AFF00211020FBF796FF072111207D
:10577000FBF792FF00211220FBF78EFF0021132080
:10578000FBF78AFF00210720FBF786FF41F29061BB
:105790001020FBF781FF40F227211120FBF77CFF4F
:1057A0009D211220FBF778FF4FF4C8511320FBF71F
:1057B00073FF25212920FBF76FFF0D212B20FBF71D
:1057C0006BFF07213020FBF767FF40F203313120E8
:1057D000FBF762FF03213220FBF75EFF40F2062158
:1057E0003520FBF759FF08213620FBF755FF40F223
:1057F00006413720FBF750FF4FF44171382000E09D
:1058000057E0FBF749FF07213920FBF745FF40F23E
:1058100002613C20FBF740FF08213D20FBF73CFFE5
:1058200000215020FBF738FFEF215120FBF734FF18
:1058300000215220FBF730FF40F23F115320FBF7CD
:105840002BFF4FF427416020FBF726FF0121612049
:10585000FBF722FF00216A20FBF71EFF00218020BA
:10586000FBF71AFF00218120FBF716FF00218220A1
:10587000FBF712FF00218320FBF70EFF002184209D
:10588000FBF70AFF00218520FBF706FF102190207F
:10589000FBF702FF4FF4C0619220FBF7FDFE40F2E0
:1058A00033110720FBF7F8FE22210020FBF7F4FE5E
:1058B0001FE78F48808849F2283188427ED141F223
:1058C0008F01EC20FBF7E8FE41F23421EF20FBF7DB
:1058D000E3FE4FF480710120FBF7DEFE4FF4E06140
:1058E0000220FBF7D9FE41F230010320FBF7D4FE82
:1058F00000210420FBF7D0FE40F202210820FBF734
:10590000CBFE00210920FBF7C7FE00210A20FBF790
:10591000C3FE01210C20FBF7BFFE00210D20FBF789
:10592000BBFE00210F20FBF7B7FE00211020FBF784
:10593000B3FE07211120FBF7AFFE00211220FBF779
:10594000ABFE00211320FBF7A7FE01210720FBF788
:10595000A3FE322003F0CDFF41F290411020FBF76F
:105960009BFE40F227211120FBF796FE322003F028
:10597000C0FF8A211220FBF78FFE322003F0B9FF0F
:105980004FF4D0511320FBF787FE06212920FBF7A7
:1059900083FE0D212B20FBF77FFE322003F0A9FFB1
:1059A00000212020FBF778FE00212120FBF774FE68
:1059B000322003F09EFF0021302000E074E0FBF76E
:1059C0006BFE40F204613120FBF766FE40F20531C8
:1059D0003220FBF761FE00213520FBF75DFE40F62B
:1059E00009413620FBF758FE4FF401713720FBF7D1
:1059F00053FE40F201313820FBF74EFE40F20771B2
:105A00003920FBF749FE00213C20FBF745FE40F61C
:105A10000A213D20FBF740FE322003F06AFF0021FF
:105A20005020FBF739FEEF215120FBF735FE002116
:105A30005220FBF731FE40F23F115320FBF72CFEC2
:105A40004FF427416020FBF727FE01216120FBF77F
:105A500023FE00216A20FBF71FFE00218020FBF7B8
:105A60001BFE00218120FBF717FE00218220FBF79F
:105A700013FE00218320FBF70FFE00218420FBF79B
:105A80000BFE00218520FBF707FE10219020FBF77D
:105A900003FE4FF4C0619220FBF7FEFD40F233118C
:105AA0000720FBF7F9FD24E61148808849F22031F0
:105AB00088427DD100210846FBF7EEFD4FF480714E
:105AC0000120FBF7E9FD4FF4E0610220FBF7E4FD64
:105AD00041F230010320FBF7DFFD00210420FBF73A
