:020000040800F2
:10000000500A00201D7A00083D0700083F0700083D
:1000100043070008470700084B07000800000000DE
:100020000000000000000000000000004F07000872
:10003000510700080000000053070008550700089A
:10004000377A0008377A0008377A0008377A0008CC
:10005000377A0008377A0008377A0008377A0008BC
:10006000377A0008377A000883050008377A0008D5
:10007000377A0008377A0008377A0008377A00089C
:10008000377A0008377A0008377A0008377A00088C
:10009000377A0008377A0008377A0008377A00087C
:1000A000377A0008377A0008377A0008377A00086C
:1000B000377A0008377A0008377A0008377A00085C
:1000C000377A0008377A0008377A0008377A00084C
:1000D000377A000891790008377A0008377A0008E3
:1000E000377A0008377A0008377A0008377A00082C
:1000F000377A0008377A0008377A0008377A00081C
:10010000377A0008377A0008377A0008377A00080B
:10011000377A0008377A0008377A0008377A0008FB
:10012000377A0008377A0008377A0008377A0008EB
:1001300000F002F800F065F80AA090E8000C824494
:100140008344AAF10107DA4501D100F05AF8AFF271
:10015000090EBAE80F0013F0010F18BFFB1A43F0A5
:1001600001031847A4E20000C4E200000A444FF073
:10017000000C10F8013B13F0070408BF10F8014B06
:100180001D1108BF10F8015B641E05D010F8016B4B
:10019000641E01F8016BF9D113F0080F1EBF10F8AF
:1001A000014BAD1C0C1B09D16D1E58BF01F801CBD2
:1001B000FAD505E014F8016B01F8016B6D1EF9D555
:1001C0009142D6D37047000000230024002500266A
:1001D000103A28BF78C1FBD8520728BF30C148BFAA
:1001E0000B607047642908F02B86782908F0648634
:1001F000732908F04787002070471FB51FBD10B551
:1002000010BD08F079FF1146FFF7F7FF00F008F87E
:1002100008F097FF03B4FFF7F2FF03BC07F05EFBA3
:100220008AB007F0F1FA4FF4A06007F017FC4FF422
:10023000E13007F061FB05F02AFA07F0C9FA05F092
:1002400003FA01F06BFEF949086880474FF47840E3
:10025000F749088004F0D9FE92E105A805F0FBF803
:100260009DF91400F34901EB0013D3E90012D3E91F
:100270000203CDE90803CDE90612EF4890F900002A
:1002800000909DF916309DF915209DF91D109DF9DE
:100290001C00089DA84700287ED09DF916209DF9D6
:1002A00015109DF9140003AB00F093FD9DF81E108E
:1002B00009B9012100E00021084602A900F01DFE55
:1002C00010B900F0F5FD60B303A800F0BEFD9DF885
:1002D000140005F09EF8D9480078D949096840F221
:1002E000CF134CF6DE62CDE90010D6480188D6481F
:1002F000008804F017FCD1480078D1490968CDE99D
:100300000010D1490988CD4A1278114488B240F2D0
:10031000CF134DF2A702CB49098804F003FC012456
:100320002EE19DF90F109DF90E0004F03EFF9DF99E
:10033000140004F03DFEC54803990160BDF810109B
:1003400081800120C24908709DF91E0002A900F0B9
:10035000D4FD00287ED00120BE4908609DF9080028
:1003600001F05DF8002876D047F6FF70B0490880AC
:10037000B94800880090B3480088B049097808441B
:1003800083B2B1480088AD490978022505FB010018
:1003900082B2AC48018800E0C9E0AB48008804F0B4
:1003A000EEF8AEA0B0490978CDE90010AE49097861
:1003B00001EB41014A00A4490988A04B1B780325A1
:1003C00005FB031188B2A8490B789E49098804F0FF
:1003D00030FB9948007878B19848007898490968C6
:1003E00000234BF6DA22CDE90010964801889648A2
:1003F000008804F097FB0FE0904800789049096866
:100400004FF478434BF6EC22CDE900108D4801887B
:100410008D48008804F086FB884800788849096880
:10042000CDE9001088490988844A1278114488B2BD
:1004300047F6FF734BF2BD728249098804F072FBE4
:100440007E4800787E490968CDE900107B4909782B
:100450007D4A01E049E013E0128802EB410188B2D5
:1004600047F6FF734CF6A4227649098804F05AFB3C
:10047000002078490860FE207449087000BFFEE73C
:100480006E4800786E490968CDE900106A48007826
:1004900008B1002001E04FF4784003464BF6AB5220
:1004A000684801886848008804F03CFB634800788D
:1004B00063490968CDE900105F49097809B1002155
:1004C00001E04FF478410B465F4909885B4A127896
:1004D000114488B24BF6FC625A49098804F022FBA9
:1004E000012400205B49086018E0BCB15A4800882C
:1004F00000905448008851490978084483B2524812
:1005000000884E490978022505FB010082B24D485A
:1005100001884D48008804F032F8002446480078ED
:1005200008B9012000E000204349087028E09DF848
:10053000140004F06EFF414800784149096840F218
:10054000CF134CF6DE62CDE900103E4801883E48EC
:10055000008804F0E7FA3948007839490968CDE99C
:10056000001039490988354A1278114488B240F29E
:10057000CF134DF2A7023349098804F0D3FA0124BE
:100580006BE6FEB5314890F9015090F900402948DA
:1005900000EB041090F90460264800EB041090F979
:1005A00005702A4890F90000801C18B9102008F046
:1005B000D2FBFEBD0A2007F064F910212B4807F09A
:1005C000B4FE00287CD1224800780128FAD12848BE
:1005D00090F90000801C18B12549087804F019FF33
:1005E0001A4800F032FC681C18B1284604F0E0FC00
:1005F00003E03946304604F0D8FD204604F0D8FC2C
:1006000002A90D4890F9000000F077FC10B900F045
:100610004FFC50B10948007809490968CDE900103C
:100620000548007830B3002026E04AE09C02002014
:100630007A020020200000201800002089020020FB
:10064000940200208C0200208A0200201A00002060
:1006500019000020A08121427C0200202067616DEA
:1006600065206F76657221008E020020001801401F
:10067000000000204FF4784003464BF6AB52274869
:1006800001882748008804F04DFA2648007826495A
:100690000968CDE900102549097809B1002101E078
:1006A0004FF478410B461E4909881E4A12781144BE
:1006B00088B24BF6FC621949098804F033FA16E057
:1006C00020E01B48008800901448008815490978EC
:1006D000084483B2134800781149098801EB4000AF
:1006E00082B20E4801880E48008803F048FF0F4888
:1006F000007808B9012000E000200C4908700020B3
:100700000C49087000BF10210B4807F00EFE0028AE
:10071000F9D0102008F01FFB00BF4AE78C02002030
:100720008A02002089020020940200201800002084
:100730007C0200201900002000180140704700BF13
:10074000FEE700BFFEE700BFFEE700BFFEE7704721
:1007500070477047704700000CB500200190009072
:100760006C48006840F480306A49086000BF6948FE
:10077000006800F4003000900198401C019000983F
:1007800018B90198B0F5A06FF1D16248006800F483
:10079000003010B10120009001E00020009000988E
:1007A000012843D15C48006840F010005A490860B5
:1007B0000846006820F0030008600846006840F022
:1007C0000200086053484068524948600846406843
:1007D00048600846406840F48060486008464068C9
:1007E00020F47C1048600846406840F4E8104860F7
:1007F0000846006840F08070086000BF4548006807
:1008000000F000700028F9D04248406820F0030052
:10081000404948600846406840F00200486000BF18
:100820003C48406800F00C000828F9D10CBD10B518
:10083000FFF792FF10BD10B53648006840F0010088
:1008400034490860084640683449084031494860E6
:1008500008460068324908402E490860084600688A
:1008600020F4802008600846406820F4FE004860BC
:100870004FF41F008860FFF7DAFF4FF0006029494E
:10088000086010BD10B5002100200022214B5B68DC
:1008900003F00C0121B1042906D0082928D107E072
:1008A000214B224C236027E01F4B204C236023E088
:1008B000184B5B6803F47010164B5B6803F48032CE
:1008C000022303EB904022B9194B4343174C23609A
:1008D0000DE0104B5B6803F4003323B1144B43432A
:1008E000124C236003E0104B4343104C236003E0A1
:1008F0000D4B0E4C236000BF00BF064B5B68C3F37B
:1009000003130C4CE15C094B1B68CB40074C236084
:1009100010BD000000100240002002400000FFF85F
:10092000FFFFF6FE08ED00E000127A000400002050
:1009300000093D00080000202DE9F0410446DDF8E3
:1009400018C0944204D0994202D00020BDE8F08142
:10095000944203D1994201D10020F7E702EB8200D3
:10096000DFF8008408EB4000C756781C40B1FE4811
:1009700000EB071090F90600604501D10020E5E783
:10098000002A05DB002B03DB082A01DC092B01DD33
:100990000020DBE7012594421ED1994202DD0E467C
:1009A0001946334605E04819984200D10EE0681C0C
:1009B00045B204EB8400DFF8AC8308EB400001EBA8
:1009C000050810F90800401C0028ECD000BF4819A9
:1009D00098421ED00020B9E7944202DD2646144614
:1009E000324605E06019904200D10CE0681C45B227
:1009F000601900EB8000DFF86C8308EB4000405684
:100A0000401C0028EED000BF6019904201D00020A9
:100A10009CE701209AE72DE9F04705460E46DDF8F0
:100A20002090501B41B2981B44B201FB04F00228F5
:100A300006D001FB04F0801C10B10020BDE8F08757
:100A400002EB8200DFF81CA30AEB4000C756781CBB
:100A500040B1C54800EB071090F90600484501D1A8
:100A60000020EBE7084601EBD07A05EB6A0A4FFA63
:100A70008AFC204604EBD07A06EB6A0A4FFA8AF821
:100A80000CEB8C00DFF8DCA20AEB400010F9080048
:100A9000401C08B10020D1E7002A05DB002B03DB56
:100AA000082A01DC092B01DD0020C7E70120C5E78A
:100AB0002DE9F04706460F46DDF820C0901B44B2F2
:100AC000D81B45B2022C01D0A01C18B9022D04D0AD
:100AD000A81C10B10020BDE8F087A04604EBD8792F
:100AE00006EB690909EB8909DFF878A20AEB4909E5
:100AF000284605EBD07A07EB6A0A19F90A10481C58
:100B000008B10020E7E7002A05DB002B03DB082AF9
:100B100001DC092B01DD0020DDE7BCF1000F03D073
:100B2000042B05DD0020D6E7052B01DA0020D2E7F3
:100B300002EB8200DFF82C8208EB4000C156481C13
:100B400040B1894800EB011090F90600604501D1E1
:100B50000020C0E70120BEE72DE9F04104460E4623
:100B6000069D101B4FFA80FC981B47B2032A01DB3D
:100B7000052A02DD0020BDE8F0810CFB0CF007FB2C
:100B80000700022801D00020F5E72DB1022B01DC7F
:100B9000002B07DA0020EEE7072B01DB092B01DD34
:100BA0000020E8E702EB8200DFF8B88108EB4000A4
:100BB000C156481C40B16C4800EB011090F906008A
:100BC000A84201D10020D6E70120D4E72DE9F04169
:100BD0000446069D101B4FFA80FC581A47B202EBE0
:100BE0008200DFF8808108EB4000C656701C48B1D7
:100BF0005D4800EB061090F90600A84202D10020E3
:100C0000BDE8F081032A01DB052A01DD0020F7E7BA
:100C10000CFB0CF007FB0700012801D00020EFE7D8
:100C20002DB1022B01DC002B07DA0020E8E7072BAF
:100C300001DB092B01DD0020E2E70120E0E72DE9DF
:100C4000F0470446DDF8209002EB8200DFF814A1A3
:100C50000AEB400010F903800026944204D0994228
:100C600002D00020BDE8F087944203D1994201D11F
:100C70000020F7E7002A05DB002B03DB082A01DC54
:100C8000092B01DD0020EDE702EB8200DFF8D4A0A4
:100C90000AEB400010F903C0012594421AD1994291
:100CA00002DD0F4619463B4601250FE004EB8400A8
:100CB000DFF8B0A00AEB400001EB050A10F90A00CA
:100CC000401C08B1701C46B2681C45B248199842D5
:100CD000ECDB17E0944202DD274614463A46012534
:100CE0000DE0601900EB8000DFF878A00AEB40000F
:100CF0004056401C08B1701C46B2681C45B26019D1
:100D00009042EEDB012E01DD0020ABE7012E02D187
:100D100008F1010018B126B908F1010008B100205E
:100D2000A0E70CF1010040B10F4800EB0C1090F966
:100D30000600484501D1002094E7012092E72DE903
:100D4000F0410746DDF818C0D01B44B2581A46B22D
:100D500006FB06F004FB0400012807D00020BDE8D4
:100D6000F08100002002002020000020002A05DB86
:100D7000002B03DB082A01DC092B01DD0020EEE754
:100D8000BCF1000F08D0002E01DA0020E7E70429AB
:100D90000BDC54B10020E2E7002E01DD0020DEE78D
:100DA000052902DB0CB10020D9E702EB8200DFF855
:100DB000F88008EB4000C556681C40B13B4800EB8A
:100DC000051090F90600604501D10020C7E7012019
:100DD000C5E7F0B51870354D05EB00152D799D7000
:100DE000324D05EB00156D79DD7019715A7101EB0B
:100DF00081052D4E06EB4505AC565C70FF252B4E4C
:100E000006EB001696F9046006EB8606264F07EB04
:100E10004606264F07EB001797F90570F555651C38
:100E200025B10025214E06EB0416357301EB810533
:100E30001D4E06EB4505A8541C4D05EB0015297108
:100E40001A4D05EB00156A71F0BD30B590F9001030
:100E500090F901208378154C04EB01142371C378B9
:100E6000124C04EB0114637190F901305B1C33B137
:100E7000012390F901400D4D05EB0414237390F903
:100E8000023003EB8303084C04EB430390F9034067
:100E9000195590F9043003EB8303034C04EB43032F
:100EA00090F905401A5530BD200200202000002096
:100EB000F94890F9442090F9B401824201D0002011
:100EC0007047F54890F84500401C41B20EE0F248EA
:100ED00090F9440000EB8000F04A02EB40004056DD
:100EE000401C08B10020EBE7481C41B2EA4890F9E9
:100EF000B5018842EBDC0120E2E7F0B58BB0064695
:100F00000D46E7A207CA04AB07C3E8A207CA01ABB4
:100F100007C34EB3002424E004A80057DE4901EBC8
:100F2000001090E80E00C06807AF0EC70A909DF849
:100F30002800A0B10120DFF860C300909CF9B53112
:100F40009CF9B4219DF921109DF92000099FB84713
:100F500028B104A8005D287001200BB0F0BD601C12
:100F600044B20A2CD8DD27E0002423E001A8005772
:100F7000C94901EB001191E80D00C96807AF0DC721
:100F80000A919DF8280098B10020DFF80CC300906A
:100F90009CF945309CF944209DF921109DF92000D1
:100FA000099FB84720B101A8005D28700120D4E74F
:100FB000601C44B20A2CD9DD0020CEE72DE9FF41A8
:100FC00004460D461646B44800EB0410007B70B38F
:100FD000B14800EB041090F90600AF4A02EB04128E
:100FE000009092F90510AC4A02EB041292F9040049
:100FF000A94A02EB041273B297686AB2B847B0B15B
:1010000001AB72B269B260B2FFF7E3FE03A9AA486E
:1010100090F90000FFF771FF50B9FFF749FF38B9A9
:1010200001A8FFF712FF012004B0BDE8F08102E043
:1010300001A8FFF70AFF0020F6E770B505460E4647
:101040009D48007898B110240DE01B2C00D108E0D9
:10105000F2B2E9B2E0B2FFF7B1FF08B1012070BD12
:1010600000BF601C44B21F2CEFDD0020F7E7002416
:101070000DE0042C00D108E0F2B2E9B2E0B2FFF7D3
:101080009DFF08B10120EAE700BF601C44B20F2CAD
:10109000EFDD0020E3E72DE9F34F8BB0054687A392
:1010A000D3E901021968DB6808AC0DC4079187A079
:1010B00003C8CDE9050187A103C9CDE9030187A1D3
:1010C00003C9CDE90101744800EB051090F9060051
:1010D000794991F90010884203D100200DB0BDE894
:1010E000F08F6D4800EB051090F904606A4800EB42
:1010F000051090F9057068490C9801EB001090F903
:1011000004800C9801EB001090F905A0202D76D2F8
:10111000DFE805F0FAACF2F175F0EFADFB101175F8
:101120007575757575757575751213FCAAECEB758B
:10113000EAE9ABFD00BF00BF00BF464549D100242E
:101140000DE0B44200D108E0FAB2E1B2E8B2FFF734
:1011500035FF08B10120C1E700BF601C44B2082C74
:10116000EFDDBA4501DD012001E04FF0FF3083469D
:101170000AEB0B0044B226E006EB8600474901EB80
:10118000400010F9049009F1010018B904EB0B00BC
:1011900044B218E0404800EB091090F906004649B7
:1011A000097809B9012100E00021884201D100201D
:1011B00094E7E2B2F1B2E8B2FFF700FF08B1002015
:1011C0008CE701208AE7092C01DC002CD4DA00200E
:1011D00084E700240DE0BC4200D108E0E2B2F1B2A5
:1011E000E8B2FFF7EBFE08B1012077E700BF601C13
:1011F00044B2092CEFDDB04502DD012002E0F4E04D
:101200004FF0FF30834608EB0B0044B226E004EBBE
:101210008400224901EB400010F9079009F1010018
:1012200018B904EB0B0044B218E01B4800EB09109E
:1012300090F906002049097809B9012100E0002150
:10124000884201D1012049E7FAB2E1B2E8B2FFF7E2
:10125000B5FE08B1002041E701203FE7082C01DC82
:10126000002CD4DA002039E700BF00BF00BF002403
:1012700046E063005B1C0DF11C0C1CF803303B4482
:10128000DAB21CF814303344D9B2E8B2FFF796FE54
:1012900008B1012022E731E02000002020020020D8
:1012A00000010708090A0B0C0D0E0F001011121394
:1012B00014151617181E1F0018000020010201FE49
:1012C000FF02FFFE020102FFFE01FEFF020202FE1C
:1012D000FE02FEFE010101FFFF01FFFF000100FF12
:1012E0000100FF0013E049E065E063E045E00DE048
:1012F0000BE041E05DE05BE03DE005E0601C44B2F6
:10130000072CB6DD0020E9E600BF00BF00BF0AF0F1
:10131000FF0208F0FF01E8B2FFF750FE08B101201C
:10132000DCE6464513D100240DE0B44200D108E0CC
:10133000FAB2E1B2E8B2FFF741FE08B10120CDE612
:1013400000BF601C44B2082CEFDD0020C6E600247C
:101350000DE0BC4200D108E0E2B2F1B2E8B2FFF722
:101360002DFE08B10120B9E600BF601C44B2092C73
:10137000EFDD0020B2E600BF00BF00BF002413E095
:1013800063005B1C0DF1140C1CF803303B44DAB213
:101390001CF814303344D9B2E8B2FFF70FFE08B19D
:1013A00001209BE6601C44B2032CE9DD002095E699
:1013B00000BF00BF00BF002413E063005B1C0DF101
:1013C0000C0C1CF803303B44DAB21CF814303344E4
:1013D000D9B2E8B2FFF7F2FD08B101207EE6601C49
:1013E00044B2032CE9DD002078E6002413E063001A
:1013F0005B1C0DF1040C1CF803303B44DAB21CF802
:1014000014303344D9B2E8B2FFF7D8FD08B1012057
:1014100064E6601C44B2032CE9DD00205EE62DE9A1
:10142000F14F82B09248007810B14FF01B0A01E0F2
:101430004FF0040A8F49029801EB001090F9046004
:10144000029801EB001090F90590084600EB0A1095
:1014500090F90450084600EB0A1090F9058008F155
:101460000103DAB2E9B20AF0FF00FFF7A7FD10B1FD
:101470000020BDE8FE8FA8F10103DAB2E9B20AF05C
:10148000FF00FFF79BFD08B10020F2E708F0FF0224
:101490006B1CD9B20AF0FF00FFF790FD08B10020E5
:1014A000E7E708F0FF026B1ED9B20AF0FF00FFF772
:1014B00085FD08B10020DCE70298152816D009DC6C
:1014C0000B286ED2DFE800F09476CBCBCBCBCB777A
:1014D0009510110016380A28F3D2DFE800F0088BC7
:1014E00069C0C0C0C0C06A8C00BF00BF00BF494611
:1014F0003046FFF7A2FD08B10020BAE7AE422BD17B
:10150000C84502DD4FF0FF3000E00120074608EB40
:10151000070044B21CE006EB8600574901EB40008F
:1015200010F904B00BF1010030B158460299FFF7F1
:10153000B2FD08B100209CE70BF1010030B9214653
:101540003046FFF77AFD08B1002092E7E01944B277
:101550004C45E0D101208CE7B54202DD4FF0FF3071
:1015600000E001200746E81944B21DE004EB8400C6
:10157000414901EB400010F909B00BF1010030B115
:1015800058460299FFF787FD08B1002071E70BF17B
:10159000010038B949462046FFF74FFD10B1002041
:1015A00067E75CE0E01944B2B442DFD1012060E7B4
:1015B00000BF00BF00BF49463046FFF73EFD08B1FF
:1015C000002056E7A8EB0902019202EBD27209EB68
:1015D000620251B2AA1B009202EBD27206EB6202C7
:1015E00050B2FFF72AFD08B1002042E7012040E792
:1015F00000BF00BF00BFAE4219D1C84502DD4FF0A9
:10160000FF3000E00120074608EB070044B208E085
:1016100021463046FFF711FD08B1002029E7E01907
:1016200044B209EB0700A042F2D1012021E7B54204
:1016300002DD4FF0FF3000E001200746E81944B218
:1016400008E049462046FFF7F8FC08B1002010E703
:10165000E01944B2F019A042F3D1012009E749464C
:101660003046FFF7EAFC08B1002002E7012000E75E
:10167000180000202000002020020020FE490880E1
:101680007047FD49891C0880704708B5FA48801CDE
:1016900000880090BDF8000008BDF74A1080921C39
:1016A0001180704710B504462046FFF7E7FF05207C
:1016B00006F0C3F8FFF7E9FF10BDF0480089EE49D6
:1016C00008807047EC49891C0880704730B5014696
:1016D00001F01F04C1F34513CA0AE50205EB4315E7
:1016E0001544A8B230BD00BF011EA0F10102D0B266
:1016F000FAD1704700B502460B46E048808841F6B3
:101700006311884247D1DD488079A8B9DB48008859
:10171000401E801A82B2D9494889FFF7AFFF0020E6
:10172000FFF7AFFF0020FFF7ACFF1012FFF7A9FF94
:10173000D0B2FFF7A6FF16E0D0494889FFF79EFF19
:101740001012FFF79EFFD0B2FFF79BFFCB4909882D
:10175000491EC1F30F20FFF794FFC8490978491EBD
:10176000C8B2FFF78EFFC5498889FFF787FF1812B7
:10177000FFF787FFD8B2FFF784FFC0494988491EA9
:10178000C1F30F20FFF77DFFBC498978491EC8B21D
:10179000FFF777FF3AE0B948808845F21051884258
:1017A00020D1B6494889FFF769FF1012FFF769FF9A
:1017B000B2494989491C88B2FFF760FFD0B2FFF7F0
:1017C00060FFAE498889FFF759FF1812FFF759FFEC
:1017D000AA498989491C88B2FFF750FFD8B2FFF7A0
:1017E00050FF13E0A5494889FFF748FF1012FFF7A3
:1017F00048FFD0B2FFF745FFA0498889FFF73EFFB9
:101800001812FFF73EFFD8B2FFF73BFF00BD2DE9EE
:10181000F04105460E4699480088A84203DD9748E6
:101820004088B04202DC0020BDE8F0813146284605
:10183000FFF760FF9148808845F21051884204D13B
:101840004FF43850FFF71AFF02E02E20FFF716FF83
:10185000FFF71BFF04468948808841F663118842E0
:1018600001D12046E0E7FFF710FF0446FFF70DFF28
:101870008046E7B24FF6FF7000EA0727E012C00289
:10188000B91240EA411040EAE820CDE700B57B48B4
:10189000808845F21051884204D14FF42450FFF75C
:1018A000EDFE02E02920FFF7E9FE00BD00B5734818
:1018B000808845F21051884204D14FF42050FFF740
:1018C000DDFE02E02820FFF7D9FE00BD70B504461A
:1018D0000023002669488079012805D1674880885F
:1018E00041F66311884208D164488079F0B96348B1
:1018F000808841F66311884218D1082C15D2DFE8A0
:1019000004F00406080A0C0E101206240DE0072449
:101910000BE0042409E0052407E0012405E000248D
:1019200003E0032401E0022400BF00BF082C1CD206
:10193000DFE804F00406090C0F12151800BF14E0CC
:1019400043F0800311E043F040030EE043F0C00396
:101950000BE043F0200308E043F0600305E043F0B0
:10196000A00302E043F0E00300BF00BF43488088CB
:1019700045F21051884202D14FF4585600E0362605
:101980003E48808849F24131884205D03B488088F2
:1019900047F28971884201D143F008031946304665
:1019A000FFF77BFE3548808841F6631188421DD0E1
:1019B00003F0200068B131480088304949888842E6
:1019C00014DA2E48058840882C490880084645804E
:1019D0000CE02A48008829494988884206DD2748C2
:1019E0000588408825490880084645802348808826
:1019F00045F21051884257D120494889FFF73EFEF1
:101A00000020FFF73EFE1D494989491C88B2FFF7B7
:101A100035FE0020FFF735FE18494989891C88B238
:101A2000FFF72CFE15490988491EC1F30F20FFF767
:101A300028FE12494989C91C88B2FFF71FFE0F49C9
:101A40000978491EC8B2FFF71CFE0C498889FFF7C8
:101A500015FE0020FFF715FE08498989491C88B248
:101A6000FFF70CFE0020FFF70CFE04498989891C52
:101A700088B2FFF703FE03E0FE07006CF4020020CB
:101A8000FE494988491EC1F30F20FFF7FAFDFB49C3
:101A90008989C91C88B2FFF7F1FDF8498978491E88
:101AA000C8B2FFF7EEFD2DE0F4494889FFF7E6FDE7
:101AB0000020FFF7E6FD0020FFF7E3FDEF4909886E
:101AC000491EC1F30F20FFF7DCFDEC490978491EE0
:101AD000C8B2FFF7D6FDE9498889FFF7CFFD00209E
:101AE000FFF7CFFD0020FFF7CCFDE4494988491EF0
:101AF000C1F30F20FFF7C5FDE0498978491EC8B240
:101B0000FFF7BFFD70BD30B504460D46294620469F
:101B1000FFF7F0FDFFF7D1FDD9480088D9490880CB
:101B200030BD10B503460C46D448808845F21051AC
:101B3000884220D1D1494889FFF7A0FD1812FFF74C
:101B4000A0FDCE494989491C88B2FFF797FDD8B25C
:101B5000FFF797FDC9498889FFF790FD2012FFF72D
:101B600090FDC6498989491C88B2FFF787FDE0B21C
:101B7000FFF787FD42E0C148808841F66311884243
:101B800028D1BE48807920B9BC480088401EC01AC0
:101B900083B2BA494889FFF771FD1812FFF771FD4A
:101BA000D8B2FFF76EFD1812FFF76BFDD8B2FFF742
:101BB00068FDB2498889FFF761FD2012FFF761FDDA
:101BC000E0B2FFF75EFD2012FFF75BFDE0B2FFF72A
:101BD00058FD13E0A9494889FFF750FD1812FFF797
:101BE00050FDD8B2FFF74DFDA4498889FFF746FDA7
:101BF0002012FFF746FDE0B2FFF743FD9F48008942
:101C0000A049891E0880881C028010BD2DE9F0477C
:101C10000446BE20FFF732FD0520FFF732FD2046C7
:101C200007F03EFD07464FF06632974B07F088FD00
:101C3000054607F0F1FC1FFA80F94846FFF721FD41
:101C40000120FFF71EFDFF20FFF71BFD0020FFF71F
:101C500018FD0020FFF715FDBDE8F08710B504461C
:101C600086488471002C45D1F020844908804FF4C7
:101C7000A07048800846808845F21051884210D1F3
:101C80004FF430507D4908814FF4285048814FF47B
:101C90002C5088814FF4F07008804FF448704880D1
:101CA0001AE07648808841F6631188420DD12C20D5
:101CB000724908812B2048812A2088814FF4F070D6
:101CC00008804FF44870488006E02C206B4908815A
:101CD0002A2048812B2088816848808845F210316D
:101CE00088424CD14FF4A070644908804FF4F070E2
:101CF000488044E04FF4A07060490880F02048809C
:101D00000846808845F21051884210D14FF4305077
:101D10005A4908814FF4285048814FF42C5088814B
:101D20004FF4487008804FF4F07048801AE0534830
:101D3000808841F6631188420DD12C204F490881DB
:101D40002A2048812B2088814FF4487008804FF466
:101D5000F070488006E02C20484908812A204881FC
:101D60002B2088814548808845F21031884206D171
:101D70004FF4F070414908804FF4A0704880002073
:101D8000FFF7A4FD10BDF0B504460D46A018401E97
:101D900086B2E818401E87B23848808841F6631141
:101DA000884231D13548807901282DD033480088C8
:101DB000801A001B84B2E818401E83B22F4948895C
:101DC000FFF75CFC2012FFF75CFCE0B2FFF759FC68
:101DD000A118491EC1F30F20FFF753FCA118491E9B
:101DE000C8B2FFF74EFC25498889FFF747FC281247
:101DF000FFF747FCE8B2FFF744FC1812FFF741FC7D
:101E0000D8B2FFF73EFC73E01C48808845F21051C1
:101E100088424DD119494889FFF730FC2012FFF75D
:101E200030FC16494989491C88B2FFF727FCE0B20B
:101E3000FFF727FC11494989891C88B2FFF71EFC6E
:101E40003012FFF71EFC0D494989C91C88B2FFF703
:101E500015FCF0B2FFF715FC08498889FFF70EFC66
:101E60002812FFF70EFC05498989491C88B2FFF743
:101E700005FCE8B2FFF705FC004907E0F40200208A
:101E80007A0200200008006C666604408989891C7B
:101E900088B2FFF7F3FB3812FFF7F3FBFE4989899D
:101EA000C91C88B2FFF7EAFBF8B2FFF7EAFB1FE0B4
:101EB000F9494889FFF7E2FB2012FFF7E2FBE0B2A5
:101EC000FFF7DFFB3012FFF7DCFBF0B2FFF7D9FBC7
:101ED000F1498889FFF7D2FB2812FFF7D2FBE8B25D
:101EE000FFF7CFFB3812FFF7CCFBF8B2FFF7C9FBC7
:101EF000F0BD70B504460026E74805884088454394
:101F000000210846FFF7F6FBFFF7D7FB00BF02E012
:101F1000E2480480761CAE42FAD370BD00B59FB093
:101F20000121080206F01DFC01214FF4B47006F0F7
:101F300025FC0120ADF8780010208DF87B000320EF
:101F40008DF87A001EA9D64806F05CF94CF2337081
:101F5000ADF8780018208DF87B0003208DF87A000A
:101F60001EA9D04806F04EF94FF68070ADF8780003
:101F700018208DF87B0003208DF87A001EA9CA482E
:101F800006F040F941F20100ADF8780018208DF814
:101F90007B0003208DF87A001EA9C44806F032F9B0
:101FA00001200890002009900F200A9000200B903B
:101FB0000C900D900E900190029003200390002051
:101FC000049005900690079006200F900020109036
:101FD00011901020129000201390159014901690DC
:101FE00017904FF480501890002019904FF48040C3
:101FF0001A9000201B9008A81C9001A81D900FA803
:1020000005F0E6FD0121062005F04AFF322005F02B
:1020100038FCD320FFF732FBFFF737FB9E4988805F
:10202000FFF733FB9C498880FFF72FFB9A49888094
:10203000084680884FF6FF7101EA002096498880A3
:10204000FFF723FB94498988084393498880084611
:10205000808849F2413188427ED00420FFF70EFB90
:10206000FFF713FB8C498880FFF70FFB8A498880B4
:10207000FFF70BFB88498880084680884FF6FF7180
:1020800001EA002084498880FFF7FFFA82498988A5
:102090000843814988800846808848F25251884226
:1020A00003D147F289707C4988807B48808847F259
:1020B000897188427AD0D420FFF7E0FAFFF7E5FA79
:1020C00075498880FFF7E1FA73498880FFF7DDFAE8
:1020D00071498880084680884FF6FF7101EA002028
:1020E0006D498880FFF7D1FA6B49898808436A49AE
:1020F00088800846808845F21031884256D04FF4D7
:102100005A40FFF7BBFAFFF7C0FA634988804FF4E3
:102110005B40FFF7B3FAFFF7B8FA5F4988800846DB
:1021200080884FF6FF7101EA00205B4988804FF4F8
:102130005C40FFF7A3FAFFF7A8FA574989880843DC
:102140005549888008468088B0F5004F02D145F295
:1021500010508880504800E028E0808845F21051F7
:10216000884223D0A120FFF789FAFFF78EFA4A4967
:102170008880FFF78AFA48498880084680884FF6A9
:10218000FF7101EA002044498880FFF77EFA424946
:1021900089880843404988800846808845F26171F3
:1021A000884203D141F663103B4988803A488188D0
:1021B0003FA006F0DBFD3848808849F24131884273
:1021C0007ED1CF20FFF75AFA0020FFF75AFAC1203C
:1021D000FFF757FA3020FFF754FAED20FFF74EFAD9
:1021E0006420FFF74EFA0320FFF74BFA1220FFF7A7
:1021F00048FA8120FFF745FAE820FFF73FFA8520EB
:10220000FFF73FFA1020FFF73CFA7A20FFF739FA80
:10221000CB20FFF733FA3920FFF733FA2C20FFF7F2
:1022200030FA0020FFF72DFA3420FFF72AFA0220B7
:10223000FFF727FAF720FFF721FA2020FFF721FA0E
:10224000EA20FFF71BFA0020FFF71BFA0020FFF738
:1022500018FAC020FFF712FA1B20FFF712FAC1206C
:10226000FFF70CFA0120FFF70CFAC520FFF706FA7A
:102270003020FFF706FA3020FFF703FAC720FFF7F8
:10228000FDF9B720FFF7FDF93620FFF7F7F94820F1
:10229000FFF7F7F93A2014E0F40200200008006C80
:1022A000000C0140001401400018014000200140D2
:1022B000204C43442049443A25780D0A0000000090
:1022C000ABE0FFF7DBF95520FFF7DBF9B120FFF7B3
:1022D000D5F90020FFF7D5F91A20FFF7D2F9B6207B
:1022E000FFF7CCF90A20FFF7CCF9A220FFF7C9F9D4
:1022F000F220FFF7C3F90020FFF7C3F92620FFF70C
:10230000BDF90120FFF7BDF9E020FFF7B7F90F2075
:10231000FFF7B7F92A20FFF7B4F92820FFF7B1F942
:102320000820FFF7AEF90E20FFF7ABF90820FFF702
:10233000A8F95420FFF7A5F9A920FFF7A2F9432037
:10234000FFF79FF90A20FFF79CF90F20FFF799F993
:102350000020FFF796F90020FFF793F90020FFF720
:1023600090F90020FFF78DF9E120FFF787F90020B1
:10237000FFF787F91520FFF784F91720FFF781F998
:102380000720FFF77EF91120FFF77BF90620FFF702
:1023900078F92B20FFF775F95620FFF772F93C20EA
:1023A000FFF76FF90520FFF76CF91020FFF769F9C7
:1023B0000F20FFF766F93F20FFF763F93F20FFF793
:1023C00060F90F20FFF75DF92B20FFF757F9002088
:1023D000FFF757F90020FFF754F90120FFF751F9F3
:1023E0003F20FFF74EF92A20FFF748F90020FFF7BA
:1023F00048F90020FFF745F90020FFF742F9EF20E8
:10240000FFF73FF91120FFF739F9782005F039FA85
:102410002920FFF733F902F0A6B8FE48808847F27A
:10242000897188427ED11120FFF728F9782005F0C4
:1024300028FA3620FFF722F90020FFF722F93A2088
:10244000FFF71CF90520FFF71CF9B220FFF716F97A
:102450000C20FFF716F90C20FFF713F90020FFF707
:1024600010F93320FFF70DF93320FFF70AF9B720F1
:10247000FFF704F93520FFF704F9BB20FFF7FEF85A
:102480003220FFF7FEF8C020FFF7F8F80C20FFF726
:10249000F8F8C220FFF7F2F80120FFF7F2F8C320A6
:1024A000FFF7ECF81020FFF7ECF8C420FFF7E6F890
:1024B0002020FFF7E6F8C620FFF7E0F80F20FFF72F
:1024C000E0F8D020FFF7DAF8A420FFF7DAF8A1202F
:1024D000FFF7D7F8E020FFF7D1F8D020FFF7D1F8C9
:1024E0000020FFF7CEF80220FFF7CBF80720FFF718
:1024F000C8F80A20FFF7C5F82820FFF7C2F83220F5
:10250000FFF7BFF84420FFF7BCF84220FFF7B9F807
:102510000620FFF7B6F80E20FFF7B3F81220FFF7FA
:10252000B0F800E054E01420FFF7ABF81720FFF7F5
:10253000A8F8E120FFF7A2F8D020FFF7A2F80020CA
:10254000FFF79FF80220FFF79CF80720FFF799F8A4
:102550000A20FFF796F82820FFF793F83120FFF7BD
:1025600090F85420FFF78DF84720FFF78AF80E20E7
:10257000FFF787F81C20FFF784F81720FFF781F892
:102580001B20FFF77EF81E20FFF77BF82A20FFF7BD
:1025900075F80020FFF775F80020FFF772F80020AB
:1025A000FFF76FF8EF20FFF76CF82B20FFF766F8C6
:1025B0000020FFF766F80020FFF763F80120FFF71F
:1025C00060F83F20FFF75DF82920FFF757F822E772
:1025D0009048808845F21031884240F07C87ED2099
:1025E000FFF74CF80120FFF74CF8FE20FFF749F801
:1025F000EE20FFF743F8DE20FFF743F82120FFF736
:1026000040F8F120FFF73AF80120FFF73AF8DF2011
:10261000FFF734F81020FFF734F8C420FFF72EF846
:102620008F20FFF72EF8C620FFF728F80020FFF7CD
:1026300028F8E220FFF725F8E220FFF722F8E22051
:10264000FFF71FF8BF20FFF719F8AA20FFF719F8C6
:10265000B020FFF713F80D20FFF713F80020FFF765
:1026600010F80D20FFF70DF80020FFF70AF81120F1
:10267000FFF707F80020FFF704F81920FFF701F82B
:102680000020FEF7FEFF2120FEF7FBFF0020FEF7F3
:10269000F8FF2D20FEF7F5FF0020FEF7F2FF3D20AA
:1026A000FEF7EFFF0020FEF7ECFF5D20FEF7E9FFED
:1026B0000020FEF7E6FF5D20FEF7E3FF0020FEF7B7
:1026C000E0FFB120FEF7DAFF8020FEF7DAFF0020FE
:1026D000FEF7D7FF8B20FEF7D4FF0020FEF7D1FFD7
:1026E0009620FEF7CEFF0020FEF7CBFFB220FEF7CC
:1026F000C5FF0020FEF7C5FF0020FEF7C2FF022045
:10270000FEF7BFFF0020FEF7BCFF0320FEF7B9FF76
:102710000020FEF7B6FFB320FEF7B0FF0020FEF763
:10272000B0FF0020FEF7ADFF0020FEF7AAFF00205B
:10273000FEF7A7FF0020FEF7A4FF0020FEF7A1FF91
:102740000020FEF79EFF0020FEF79BFF0020FEF713
:1027500098FF0020FEF795FF0020FEF792FF002073
:10276000FEF78FFF0020FEF78CFF0020FEF789FFA9
:102770000020FEF786FF0020FEF783FF0020FEF713
:1027800080FF0020FEF77DFF0020FEF77AFF00208B
:10279000FEF777FF0020FEF774FF0020FEF771FFC1
:1027A0000020FEF76EFF0020FEF76BFFB420FEF75F
:1027B00065FF8B20FEF765FF0020FEF762FF962085
:1027C000FEF75FFF0020FEF75CFFA120FEF759FF38
:1027D0000020FEF756FFB520FEF750FF0220FEF75F
:1027E00050FF0020FEF74DFF0320FEF74AFF0020B8
:1027F000FEF747FF0420FEF744FF0020FEF741FFED
:10280000B620FEF73BFF0020FEF73BFF0020FEF75F
:1028100038FF01E0F4020020B720FEF72FFF002070
:10282000FEF72FFF0020FEF72CFF3F20FEF729FFC9
:102830000020FEF726FF5E20FEF723FF0020FEF7B4
:1028400020FF6420FEF71DFF0020FEF71AFF8C20FA
:10285000FEF717FF0020FEF714FFAC20FEF711FF74
:102860000020FEF70EFFDC20FEF70BFF0020FEF736
:1028700008FF7020FEF705FF0020FEF702FF902002
:10288000FEF7FFFE0020FEF7FCFEEB20FEF7F9FE50
:102890000020FEF7F6FEDC20FEF7F3FE0020FEF738
:1028A000F0FEB820FEF7EAFE0020FEF7EAFE002068
:1028B000FEF7E7FE0020FEF7E4FE0020FEF7E1FE53
:1028C0000020FEF7DEFE0020FEF7DBFE0020FEF714
:1028D000D8FE0020FEF7D5FEBA20FEF7CFFE24205A
:1028E000FEF7CFFE0020FEF7CCFE0020FEF7C9FE6B
:1028F0000020FEF7C6FEC120FEF7C0FE2020FEF736
:10290000C0FE0020FEF7BDFE5420FEF7BAFE0020F8
:10291000FEF7B7FEFF20FEF7B4FE0020FEF7B1FE83
:10292000C220FEF7ABFE0A20FEF7ABFE0020FEF74A
:10293000A8FE0420FEF7A5FE0020FEF7A2FEC3209D
:10294000FEF79CFE3C20FEF79CFE0020FEF799FE61
:102950003A20FEF796FE0020FEF793FE3920FEF7A0
:1029600090FE0020FEF78DFE3720FEF78AFE002045
:10297000FEF787FE3C20FEF784FE0020FEF781FE76
:102980003620FEF77EFE0020FEF77BFE3220FEF7AB
:1029900078FE0020FEF775FE2F20FEF772FE002065
:1029A000FEF76FFE2C20FEF76CFE0020FEF769FE9E
:1029B0002920FEF766FE0020FEF763FE2620FEF7C4
:1029C00060FE0020FEF75DFE2420FEF75AFE002088
:1029D000FEF757FE2420FEF754FE0020FEF751FEBE
:1029E0002320FEF74EFE0020FEF74BFE3C20FEF7B4
:1029F00048FE0020FEF745FE3620FEF742FE00208E
:102A0000FEF73FFE3220FEF73CFE0020FEF739FEC7
:102A10002F20FEF736FE0020FEF733FE2C20FEF7B7
:102A200030FE0020FEF72DFE2920FEF72AFE0020B2
:102A3000FEF727FE2620FEF724FE0020FEF721FEEB
:102A40002420FEF71EFE0020FEF71BFE2420FEF7CA
:102A500018FE0020FEF715FE2320FEF712FE0020D0
:102A6000FEF70FFEC420FEF709FE6220FEF709FE06
:102A70000020FEF706FE0520FEF703FE0020FEF70D
:102A800000FE8420FEF7FDFD0020FEF7FAFDF02099
:102A9000FEF7F7FD0020FEF7F4FD1820FEF7F1FD2C
:102AA0000020FEF7EEFDA420FEF7EBFD0020FEF770
:102AB000E8FD1820FEF7E5FD0020FEF7E2FD5020BE
:102AC000FEF7DFFD0020FEF7DCFD0C20FEF7D9FD50
:102AD0000020FEF7D6FD1720FEF7D3FD0020FEF7FD
:102AE000D0FD9520FEF7CDFD0020FEF7CAFDF320B6
:102AF000FEF7C7FD0020FEF7C4FDE620FEF7C1FD8E
:102B00000020FEF7BEFDC520FEF7B8FD3220FEF71F
:102B1000B8FD0020FEF7B5FD4420FEF7B2FD002011
:102B2000FEF7AFFD6520FEF7ACFD0020FEF7A9FD26
:102B30007620FEF7A6FD0020FEF7A3FD8820FEF715
:102B4000A0FD0020FEF79DFDC620FEF797FD20208A
:102B5000FEF797FD0020FEF794FD1720FEF791FD8C
:102B60000020FEF78EFD0120FEF78BFD0020FEF712
:102B700088FDC720FEF782FD0020FEF782FD0020C1
:102B8000FEF77FFD0020FEF77CFD0020FEF779FDBB
:102B9000C820FEF773FD0020FEF773FD0020FEF74E
:102BA00070FD0020FEF76DFD0020FEF76AFDC920D4
:102BB000FEF764FD0020FEF764FD0020FEF761FDD6
:102BC0000020FEF75EFD0020FEF75BFD0020FEF713
:102BD00058FD0020FEF755FD0020FEF752FD0020B5
:102BE000FEF74FFD0020FEF74CFD0020FEF749FDEB
:102BF0000020FEF746FD0020FEF743FD0020FEF713
:102C000040FD0020FEF73DFD0020FEF73AFD0020CC
:102C1000FEF737FDE020FEF731FD1620FEF731FD0F
:102C20000020FEF72EFD1C20FEF72BFD0020FEF7F6
:102C300028FD2120FEF725FD0020FEF722FD36208D
:102C4000FEF71FFD0020FEF71CFD4620FEF719FDD4
:102C50000020FEF716FD5220FEF713FD0020FEF7C0
:102C600010FD6420FEF70DFD0020FEF70AFD7A201E
:102C7000FEF707FD0020FEF704FD8B20FEF701FDA7
:102C80000020FEF7FEFC9920FEF7FBFC0020FEF77B
:102C9000F8FCA820FEF7F5FC0020FEF7F2FCB920B6
:102CA000FEF7EFFC0020FEF7ECFCC420FEF7E9FC89
:102CB0000020FEF7E6FCCA20FEF7E3FC0020FEF74A
:102CC000E0FCD220FEF7DDFC0020FEF7DAFCD92084
:102CD000FEF7D7FC0020FEF7D4FCE020FEF7D1FC85
:102CE0000020FEF7CEFCF320FEF7CBFC0020FEF721
:102CF000C8FCE120FEF7C2FC1620FEF7C2FC002053
:102D0000FEF7BFFC1C20FEF7BCFC0020FEF7B9FC60
:102D10002220FEF7B6FC0020FEF7B3FC3620FEF7BB
:102D2000B0FC0020FEF7ADFC4520FEF7AAFC002019
:102D3000FEF7A7FC5220FEF7A4FC0020FEF7A1FC42
:102D40006420FEF79EFC0020FEF79BFC7A20FEF735
:102D500098FC0020FEF795FC8B20FEF792FC0020EB
:102D6000FEF78FFC9920FEF78CFC0020FEF789FC13
:102D7000A820FEF786FC0020FEF783FCB920FEF7B2
:102D800080FC0020FEF77DFCC420FEF77AFC0020CA
:102D9000FEF777FCCA20FEF774FC0020FEF771FCFA
:102DA000D220FEF76EFC0020FEF76BFCD820FEF769
:102DB00068FC0020FEF765FCE020FEF762FC0020C6
:102DC000FEF75FFCF320FEF75CFC0020FEF759FCE9
:102DD000E220FEF753FC0520FEF753FC0020FEF72F
:102DE00050FC0B20FEF74DFC0020FEF74AFC1B2098
:102DF000FEF747FC0020FEF744FC3420FEF741FCC0
:102E00000020FEF73EFC4420FEF73BFC0020FEF7CE
:102E100038FC4F20FEF735FC0020FEF732FC612025
:102E2000FEF72FFC0020FEF72CFC7920FEF729FC92
:102E30000020FEF726FC8820FEF723FC0020FEF78A
:102E400020FC9720FEF71DFC0020FEF71AFCA620B0
:102E5000FEF717FC0020FEF714FCB720FEF711FC6C
:102E60000020FEF70EFCC220FEF70BFC0020FEF750
:102E700008FCC720FEF705FC0020FEF702FCD1206D
:102E8000FEF7FFFB0020FEF7FCFBD620FEF7F9FB68
:102E90000020FEF7F6FBDD20FEF7F3FB0020FEF737
:102EA000F0FBF320FEF7EDFB0020FEF7EAFBE3204A
:102EB000FEF7E4FB0520FEF7E4FB0020FEF7E1FB54
:102EC0000A20FEF7DEFB0020FEF7DBFB1C20FEF7EE
:102ED000D8FB0020FEF7D5FB3320FEF7D2FB002005
:102EE000FEF7CFFB4420FEF7CCFB0020FEF7C9FB2A
:102EF0005020FEF7C6FB0020FEF7C3FB6220FEF762
:102F0000C0FB0020FEF7BDFB7820FEF7BAFB0020D7
:102F1000FEF7B7FB8820FEF7B4FB0020FEF7B1FBFD
:102F20009720FEF7AEFB0020FEF7ABFBA620FEF7D6
:102F3000A8FB0020FEF7A5FBB720FEF7A2FB0020B0
:102F4000FEF79FFBC220FEF79CFB0020FEF799FBDB
:102F5000C720FEF796FB0020FEF793FBD120FEF77B
:102F600090FB0020FEF78DFBD520FEF78AFB0020AA
:102F7000FEF787FBDD20FEF784FB0020FEF781FBD8
:102F8000F320FEF77EFB0020FEF77BFBE420FEF73C
:102F900075FB0120FEF775FB0020FEF772FB012098
:102FA000FEF76FFB0020FEF76CFB0220FEF769FBCB
:102FB0000020FEF766FB2A20FEF763FB0020FEF7E9
:102FC00060FB3C20FEF75DFB0020FEF75AFB4B2028
:102FD000FEF757FB0020FEF754FB5D20FEF751FB88
:102FE0000020FEF74EFB7420FEF74BFB0020FEF79F
:102FF00048FB8420FEF745FB0020FEF742FB9320B0
:10300000FEF73FFB0020FEF73CFBA220FEF739FB5A
:103010000020FEF736FBB320FEF733FB0020FEF75F
:1030200030FBBE20FEF72DFB0020FEF72AFBC4205C
:10303000FEF727FB0020FEF724FBCD20FEF721FB47
:103040000020FEF71EFBD320FEF71BFB0020FEF73F
:1030500018FBDD20FEF715FB0020FEF712FBF32026
:10306000FEF70FFB0020FEF70CFBE520FEF706FB4A
:103070000020FEF706FB0020FEF703FB0020FEF712
:1030800000FB0020FEF7FDFA0220FEF7FAFA00200E
:10309000FEF7F7FA2920FEF7F4FA0020FEF7F1FA1E
:1030A0003C20FEF7EEFA0020FEF7EBFA4B20FEF78D
:1030B000E8FA0020FEF7E5FA5D20FEF7E2FA0020CC
:1030C000FEF7DFFA7420FEF7DCFA0020FEF7D9FAEB
:1030D0008420FEF7D6FA0020FEF7D3FA9320FEF7FD
:1030E000D0FA0020FEF7CDFAA220FEF7CAFA00209F
:1030F000FEF7C7FAB320FEF7C4FA0020FEF7C1FAC4
:10310000BE20FEF7BEFA0020FEF7BBFAC420FEF791
:10311000B8FA0020FEF7B5FACD20FEF7B2FA00208B
:10312000FEF7AFFAD320FEF7ACFA0020FEF7A9FABB
:10313000DC20FEF7A6FA0020FEF7A3FAF320FEF744
:10314000A0FA0020FEF79DFAE620FEF797FA11207C
:10315000FEF797FA0020FEF794FA3420FEF791FA72
:103160000020FEF78EFA5620FEF78BFA0020FEF7BD
:1031700088FA7620FEF785FA0020FEF782FA77209B
:10318000FEF77FFA0020FEF77CFA6620FEF779FA58
:103190000020FEF776FA8820FEF773FA0020FEF78B
:1031A00070FA9920FEF76DFA0020FEF76AFABB204C
:1031B000FEF767FA0020FEF764FA9920FEF761FA3D
:1031C0000020FEF75EFA6620FEF75BFA0020FEF7AD
:1031D00058FA5520FEF755FA0020FEF752FA55200E
:1031E000FEF74FFA0020FEF74CFA4520FEF749FAA9
:1031F0000020FEF746FA4320FEF743FA0020FEF7D0
:1032000040FA4420FEF73DFA0020FEF73AFAE720A4
:10321000FEF734FA3220FEF734FA0020FEF731FAD6
:103220005520FEF72EFA0020FEF72BFA7620FEF747
:1032300028FA0020FEF725FA6620FEF722FA002081
:10324000FEF71FFA6720FEF71CFA0020FEF719FAB6
:103250006720FEF716FA0020FEF713FA8720FEF724
:1032600010FA0020FEF70DFA9920FEF70AFA002066
:10327000FEF707FABB20FEF704FA0020FEF701FA7A
:103280009920FEF7FEF90020FEF7FBF97720FEF704
:10329000F8F90020FEF7F5F94420FEF7F2F90020D6
:1032A000FEF7EFF95620FEF7ECF90020FEF7E9F9FA
:1032B0002320FEF7E6F90020FEF7E3F93320FEF7BE
:1032C000E0F90020FEF7DDF94520FEF7DAF90020ED
:1032D000FEF7D7F9E820FEF7D1F90020FEF7D1F983
:1032E0000020FEF7CEF99920FEF7CBF90020FEF77B
:1032F000C8F98720FEF7C5F90020FEF7C2F988203B
:10330000FEF7BFF90020FEF7BCF97720FEF7B9F908
:103310000020FEF7B6F96620FEF7B3F90020FEF7AD
:10332000B0F98820FEF7ADF90020FEF7AAF9AA202F
:10333000FEF7A7F90020FEF7A4F9BB20FEF7A1F9DC
:103340000020FEF79EF99920FEF79BF90020FEF77A
:1033500098F96620FEF795F90020FEF792F95520BE
:10336000FEF78FF90020FEF78CF95520FEF789F95A
:103370000020FEF786F94420FEF783F90020FEF7CF
:1033800080F94420FEF77DF90020FEF77AF95520F8
:10339000FEF777F90020FEF774F9E920FEF76EF9E1
:1033A000AA20FEF76EF90020FEF76BF90020FEF769
:1033B00068F90020FEF765F90020FEF75FF9AA2002
:1033C000FEF75FF9CF20FEF759F90020FEF759F913
:1033D0000020FEF756F90020FEF753F90020FEF713
:1033E00050F90020FEF74DF90020FEF74AF90020C1
:1033F000FEF747F90020FEF744F90020FEF741F9F7
:103400000020FEF73EF90020FEF73BF90020FEF712
:1034100038F90020FEF735F90020FEF732F90020D8
:10342000FEF72FF90020FEF72CF90020FEF729F90E
:10343000F020FEF723F90020FEF723F95020FEF7D5
:1034400020F90020FEF71DF90020FEF71AF90020F0
:10345000FEF717F9F320FEF711F90020FEF711F936
:10346000F920FEF70BF90620FEF70BF91020FEF706
:1034700008F92920FEF705F90020FEF702F93A20A5
:10348000FEF7FCF85520FEF7FCF81120FEF7F6F8E1
:10349000642004F0F6F92920FEF7F0F83520FEF755
:1034A000EDF80020FEF7EDF85120FEF7E7F8FF20D9
:1034B000FEF7E7F85320FEF7E1F82C20FEF7E1F8DD
:1034C0005520FEF7DBF88220FEF7DBF82C20FEF714
:1034D000D5F801F048B8FE48808845F2105188427E
:1034E0007ED155214FF47040FEF7D7F8AA214FF254
:1034F0000100FEF7D2F852214FF20200FEF7CDF89C
:1035000008214FF20300FEF7C8F801214FF2040032
:10351000FEF7C3F80D214FF43040FEF7BEF80D2141
:103520004BF20100FEF7B9F80D214BF20200FEF755
:10353000B4F834214FF43640FEF7AFF834214BF2A3
:103540000160FEF7AAF834214BF20260FEF7A5F8FD
:103550000D214FF43140FEF7A0F80D214BF2011080
:10356000FEF79BF80D214BF20210FEF796F834217E
:103570004FF43740FEF791F834214BF20170FEF71B
:103580008CF834214BF20270FEF787F800214FF4DB
:103590003240FEF782F800214BF20120FEF77DF861
:1035A00000214BF20220FEF778F824214FF4384036
:1035B000FEF773F824214BF60100FEF76EF8242184
:1035C0004BF60200FEF769F801214FF43F40FEF789
:1035D00064F80F214FF43340FEF75FF80F2100E04D
:1035E000FEE34BF20130FEF758F80F214BF20230A8
:1035F000FEF753F834214FF43940FEF74EF83421EA
:103600004BF60110FEF749F834214BF60210FEF795
:1036100044F808214FF43540FEF73FF808214BF2FB
:103620000150FEF73AF808214BF20250FEF735F848
:1036300003214FF44240FEF730F824214FF43A4082
:10364000FEF72BF824214BF60120FEF726F8242163
:103650004BF60220FEF721F800214FF43C40FEF724
:103660001CF878214BF60140FEF717F800214BF6C5
:103670000240FEF712F800214FF43D40FEF70DF82E
:1036800078214BF60150FEF708F800214BF6025066
:10369000FEF703F800214FF43E40FDF7FEFF6421E2
:1036A0004BF60160FDF7F9FF00214FF45140FDF7A3
:1036B000F4FF33214DF20110FDF7EFFF00214DF231
:1036C0000210FDF7EAFF34214DF20310FDF7E5FF8C
:1036D00000214DF20410FDF7E0FF3A214DF20510F4
:1036E000FDF7DBFF00214DF20610FDF7D6FF4A2162
:1036F0004DF20710FDF7D1FF00214DF20810FDF744
:10370000CCFF5C214DF20910FDF7C7FF00214DF2FF
:103710000A10FDF7C2FF81214DF20B10FDF7BDFF2E
:1037200000214DF20C10FDF7B8FFA6214DF20D104F
:10373000FDF7B3FF00214DF20E10FDF7AEFFE521BE
:103740004DF20F10FDF7A9FF01214DF21010FDF70A
:10375000A4FF13214DF21110FDF79FFF01214DF23F
:103760001210FDF79AFF54214DF21310FDF795FF4B
:1037700001214DF21410FDF790FF82214DF215103A
:10378000FDF78BFF01214DF21610FDF786FFCA21D0
:103790004DF21710FDF781FF02214DF21810FDF7D1
:1037A0007CFF00214DF21910FDF777FF02214DF249
:1037B0001A10FDF772FF01214DF21B10FDF76DFF8E
:1037C00002214DF21C10FDF768FF34214DF21D104F
:1037D000FDF763FF02214DF21E10FDF75EFF67212A
:1037E0004DF21F10FDF759FF02214DF22010FDF799
:1037F00054FF84214DF22110FDF74FFF02214DF2BD
:103800002210FDF74AFFA4214DF22310FDF745FFDA
:1038100002214DF22410FDF740FFB7214DF2251093
:10382000FDF73BFF02214DF22610FDF736FFCF21B9
:103830004DF22710FDF731FF02214DF22810FDF760
:103840002CFFDE214DF22910FDF727FF02214DF25A
:103850002A10FDF722FFF2214DF22B10FDF71DFF7C
:1038600002214DF22C10FDF718FFFE214DF22D1014
:10387000FDF713FF03214DF22E10FDF70EFF10216F
:103880004DF22F10FDF709FF03214DF23010FDF727
:1038900004FF33214DF23110FDF7FFFE03214DF2FD
:1038A0003210FDF7FAFE6D214DF23310FDF7F5FEF3
:1038B00000214FF45240FDF7F0FE33214DF201207C
:1038C000FDF7EBFE00214DF20220FDF7E6FE01E0E0
:1038D000F402002034214DF20320FDF7DEFE00212A
:1038E0004DF20420FDF7D9FE3A214DF20520FDF7F7
:1038F000D4FE00214DF20620FDF7CFFE4A214DF205
:103900000720FDF7CAFE00214DF20820FDF7C5FE95
:103910005C214DF20920FDF7C0FE00214DF20A2086
:10392000FDF7BBFE81214DF20B20FDF7B6FE002115
:103930004DF20C20FDF7B1FEA6214DF20D20FDF752
:10394000ACFE00214DF20E20FDF7A7FEE5214DF261
:103950000F20FDF7A2FE01214DF21020FDF79DFE84
:1039600013214DF21120FDF798FE01214DF2122096
:10397000FDF793FE54214DF21320FDF78EFE012139
:103980004DF21420FDF789FE82214DF21520FDF73E
:1039900084FE01214DF21620FDF77FFECA214DF273
:1039A0001720FDF77AFE02214DF21820FDF775FE73
:1039B00000214DF21920FDF770FE02214DF21A2070
:1039C000FDF76BFE01214DF21B20FDF766FE022183
:1039D0004DF21C20FDF761FE34214DF21D20FDF754
:1039E0005CFE02214DF21E20FDF757FE67214DF2CD
:1039F0001F20FDF752FE02214DF22020FDF74DFE63
:103A000084214DF22120FDF748FE02214DF22220B3
:103A1000FDF743FEA4214DF22320FDF73EFE0221D7
:103A20004DF22420FDF739FEB7214DF22520FDF798
:103A300034FE02214DF22620FDF72FFECF214DF25C
:103A40002720FDF72AFE02214DF22820FDF725FE52
:103A5000DE214DF22920FDF720FE02214DF22A2021
:103A6000FDF71BFEF2214DF22B20FDF716FE022181
:103A70004DF22C20FDF711FEFE214DF22D20FDF719
:103A80000CFE03214DF22E20FDF707FE10214DF212
:103A90002F20FDF702FE03214DF23020FDF7FDFD42
:103AA00033214DF23120FDF7F8FD03214DF2322094
:103AB000FDF7F3FD6D214DF23320FDF7EEFD002102
:103AC0004FF45340FDF7E9FD33214DF20130FDF78E
:103AD000E4FD00214DF20230FDF7DFFD34214DF20F
:103AE0000330FDF7DAFD00214DF20430FDF7D5FD7E
:103AF0003A214DF20530FDF7D0FD00214DF20630A0
:103B0000FDF7CBFD4A214DF20730FDF7C6FD002140
:103B10004DF20830FDF7C1FD5C214DF20930FDF793
:103B2000BCFD00214DF20A30FDF7B7FD81214DF2B9
:103B30000B30FDF7B2FD00214DF20C30FDF7ADFD6D
:103B4000A6214DF20D30FDF7A8FD00214DF20E30FB
:103B5000FDF7A3FDE5214DF20F30FDF79EFD01219C
:103B60004DF21030FDF799FD13214DF21130FDF7A4
:103B700094FD01214DF21230FDF78FFD54214DF2DD
:103B80001330FDF78AFD01214DF21430FDF785FD5C
:103B900082214DF21530FDF780FD01214DF21630E6
:103BA000FDF77BFDCA214DF21730FDF776FD0221AE
:103BB0004DF21830FDF771FD00214DF21930FDF77F
:103BC0006CFD02214DF21A30FDF767FD01214DF227
:103BD0001B30FDF762FD02214DF21C30FDF75DFD4B
:103BE00034214DF21D30FDF758FD02214DF21E30FB
:103BF000FDF753FD67214DF21F30FDF74EFD022109
:103C00004DF22030FDF749FD84214DF22130FDF7C2
:103C100044FD02214DF22230FDF73FFDA4214DF27B
:103C20002330FDF73AFD02214DF22430FDF735FD3A
:103C3000B7214DF22530FDF730FD02214DF226303F
:103C4000FDF72BFDCF214DF22730FDF726FD022198
:103C50004DF22830FDF721FDDE214DF22930FDF730
:103C60001CFD02214DF22A30FDF717FDF2214DF225
:103C70002B30FDF712FD02214DF22C30FDF70DFD2A
:103C8000FE214DF22D30FDF708FD03214DF22E30BF
:103C9000FDF703FD10214DF22F30FDF7FEFC03214F
:103CA0004DF23030FDF7F9FC33214DF23130FDF7A4
:103CB000F4FC03214DF23230FDF7EFFC6D214DF2A3
:103CC0003330FDF7EAFC00214FF45440FDF7E5FCEA
:103CD00033214DF20140FDF7E0FC00214DF202409E
:103CE000FDF7DBFC34214DF20340FDF7D6FC00214B
:103CF0004DF20440FDF7D1FC3A214DF20540FDF7AD
:103D0000CCFC00214DF20640FDF7C7FC4A214DF2E4
:103D10000740FDF7C2FC00214DF20840FDF7BDFC55
:103D20005C214DF20940FDF7B8FC00214DF20A403C
:103D3000FDF7B3FC81214DF20B40FDF7AEFC0021F5
:103D40004DF20C40FDF7A9FCA6214DF20D40FDF708
:103D5000A4FC00214DF20E40FDF79FFCE5214DF241
:103D60000F40FDF79AFC01214DF21040FDF795FC44
:103D700013214DF21140FDF790FC01214DF212404C
:103D8000FDF78BFC54214DF21340FDF786FC012119
:103D90004DF21440FDF781FC82214DF21540FDF7F4
:103DA0007CFC01214DF21640FDF777FCCA214DF253
:103DB0001740FDF772FC02214DF21840FDF76DFC33
:103DC00000214DF21940FDF768FC02214DF21A4026
:103DD000FDF763FC01214DF21B40FDF75EFC00E0A6
:103DE00003E302214DF21C40FDF757FC34214DF254
:103DF0001D40FDF752FC02214DF21E40FDF74DFC27
:103E000067214DF21F40FDF748FC02214DF2204092
:103E1000FDF743FC84214DF22140FDF73EFC0221D9
:103E20004DF22240FDF739FCA4214DF22340FDF76D
:103E300034FC02214DF22440FDF72FFCB7214DF256
:103E40002540FDF72AFC02214DF22640FDF725FC16
:103E5000CF214DF22740FDF720FC02214DF22840F2
:103E6000FDF71BFCDE214DF22940FDF716FC022177
:103E70004DF22A40FDF711FCF2214DF22B40FDF7E7
:103E80000CFC02214DF22C40FDF707FCFE214DF207
:103E90002D40FDF702FC03214DF22E40FDF7FDFB06
:103EA00010214DF22F40FDF7F8FB03214DF2304079
:103EB000FDF7F3FB33214DF23140FDF7EEFB03211B
:103EC0004DF23240FDF7E9FB6D214DF23340FDF735
:103ED000E4FB00214FF45540FDF7DFFB33214DF2A9
:103EE0000150FDF7DAFB00214DF20250FDF7D5FB42
:103EF00034214DF20350FDF7D0FB00214DF2045068
:103F0000FDF7CBFB3A214DF20550FDF7C6FB002132
:103F10004DF20650FDF7C1FB4A214DF20750FDF767
:103F2000BCFB00214DF20850FDF7B7FB5C214DF2C0
:103F30000950FDF7B2FB00214DF20A50FDF7ADFB31
:103F400081214DF20B50FDF7A8FB00214DF20C50E2
:103F5000FDF7A3FBA6214DF20D50FDF79EFB0021BE
:103F60004DF20E50FDF799FBE5214DF20F50FDF794
:103F700094FB01214DF21050FDF78FFB13214DF200
:103F80001150FDF78AFB01214DF21250FDF785FB20
:103F900054214DF21350FDF780FB01214DF21450D6
:103FA000FDF77BFB82214DF21550FDF776FB0121D9
:103FB0004DF21650FDF771FBCA214DF21750FDF777
:103FC0006CFB02214DF21850FDF767FB00214DF20A
:103FD0001950FDF762FB02214DF21A50FDF75DFB0F
:103FE00001214DF21B50FDF758FB02214DF21C50F0
:103FF000FDF753FB34214DF21D50FDF74EFB02211E
:104000004DF21E50FDF749FB67214DF21F50FDF7A1
:1040100044FB02214DF22050FDF73FFB84214DF27D
:104020002150FDF73AFB02214DF22250FDF735FBFE
:10403000A4214DF22350FDF730FB02214DF2245014
:10404000FDF72BFBB7214DF22550FDF726FB022192
:104050004DF22650FDF721FBCF214DF22750FDF701
:104060001CFB02214DF22850FDF717FBDE214DF21B
:104070002950FDF712FB02214DF22A50FDF70DFBEE
:10408000F2214DF22B50FDF708FB02214DF22C508E
:10409000FDF703FBFE214DF22D50FDF7FEFA032143
:1040A0004DF22E50FDF7F9FA10214DF22F50FDF789
:1040B000F4FA03214DF23050FDF7EFFA33214DF2BF
:1040C0003150FDF7EAFA03214DF23250FDF7E5FADF
:1040D0006D214DF23350FDF7E0FA00214FF45640C8
:1040E000FDF7DBFA33214DF20160FDF7D6FA00212E
:1040F0004DF20260FDF7D1FA34214DF20360FDF775
:10410000CCFA00214DF20460FDF7C7FA3A214DF2D6
:104110000560FDF7C2FA00214DF20660FDF7BDFA19
:104120004A214DF20760FDF7B8FA00214DF2086010
:10413000FDF7B3FA5C214DF20960FDF7AEFA0021FC
:104140004DF20A60FDF7A9FA81214DF20B60FDF7EF
:10415000A4FA00214DF20C60FDF79FFAA6214DF262
:104160000D60FDF79AFA00214DF20E60FDF795FA09
:10417000E5214DF20F60FDF790FA01214DF210603C
:10418000FDF78BFA13214DF21160FDF786FA01213C
:104190004DF21260FDF781FA54214DF21360FDF7E4
:1041A0007CFA01214DF21460FDF777FA82214DF27D
:1041B0001560FDF772FA01214DF21660FDF76DFAF8
:1041C000CA214DF21760FDF768FA02214DF218601E
:1041D000FDF763FA00214DF21960FDF75EFA022146
:1041E0004DF21A60FDF759FA01214DF21B60FDF7FF
:1041F00054FA02214DF21C60FDF74FFA34214DF2C2
:104200001D60FDF74AFA02214DF21E60FDF745FAE6
:1042100067214DF21F60FDF740FA02214DF2206048
:10422000FDF73BFA84214DF22160FDF736FA0221B9
:104230004DF22260FDF731FAA4214DF22360FDF723
:104240002CFA02214DF22460FDF727FAB7214DF236
:104250002560FDF722FA02214DF22660FDF71DFAD6
:10426000CF214DF22760FDF718FA02214DF22860A8
:10427000FDF713FADE214DF22960FDF70EFA022157
:104280004DF22A60FDF709FAF2214DF22B60FDF79D
:1042900004FA02214DF22C60FDF7FFF9FE214DF2E8
:1042A0002D60FDF7FAF903214DF22E60FDF7F5F9C7
:1042B00010214DF22F60FDF7F0F903214DF230602F
:1042C000FDF7EBF933214DF23160FDF7E6F90321FB
:1042D0004DF23260FDF7E1F96D214DF23360FDF7EB
:1042E000DCF955214FF47040FDF7D7F9AA214FF2C0
:1042F0000100FDF7D2F952214FF20200FDF7CDF98E
:1043000008214FF20300FDF7C8F900214FF2040025
:10431000FDF7C3F9CC214FF43140FDF7BEF9002180
:104320004BF20110FDF7B9F905214FF43640FDF7C6
:10433000B4F970214FF43740FDF7AFF970214BF21B
:104340000170FDF7AAF901214FF43840FDF7A5F9F6
:1043500003214BF60100FDF7A0F903214BF6020003
:10436000FDF79BF903214BF60300FDF796F90221B7
:104370004FF43C40FDF791F900214BF60140FDF769
:104380008CF900214BF60240FDF787F9D0214FF45C
:104390004940FDF782F902214CF60110FDF77DF945
:1043A00050214CF60210FDF778F950214CF603101D
:1043B000FDF773F950214CF60410FDF76EF900215A
:1043C0004FF45450FDF769F955214FF46850FDF74B
:1043D00064F94FF48850FDF751F9782003F02DFA75
:1043E0004FF42450FDF74AF9BDE0FE48808841F6BD
:1043F00063118842F8D1E220FDF740F91D20FDF756
:1044000040F90220FDF73DF90420FDF73AF9642058
:1044100003F013FAE020FDF731F90120FDF731F93F
:104420000A2003F02EFAE020FDF728F90320FDF71B
:1044300028F90C2003F025FA0120FDF71FF90A20C6
:1044400003F01FFAE620FDF719F92F20FDF719F9FF
:10445000FF20FDF716F9FF20FDF713F9B020FDF757
:104460000DF92020FDF70DF90020FDF70AF90320D2
:10447000FDF707F940F21F30FDF703F90120FDF7C2
:1044800000F940F2DF10FDF7FCF80020FDF7F9F825
:10449000B420FDF7F3F80420FDF7F3F840F21F40D5
:1044A000FDF7EFF80020FDF7ECF82E20FDF7E9F816
:1044B0000020FDF7E6F80020FDF7E3F80020FDF707
:1044C000E0F80020FDF7DDF8B620FDF7D7F8022070
:1044D000FDF7D7F84FF40370FDF7D3F80020FDF790
:1044E000D0F81720FDF7CDF81520FDF7CAF8002009
:1044F000FDF7C7F80020FDF7C4F8F020FDF7BEF87F
:104500000320FDF7BEF82920FDF7B8F8D020FDF70D
:10451000B5F80020FDF7B5F8BE20FDF7AFF805208F
:10452000FDF7AFF8FE20FDF7ACF80120FDF7A9F884
:104530000020FDF7A6F80020FDF7A3F80020FDF706
:10454000A0F8B820FDF79AF80320FDF79AF80120AB
:10455000FDF797F8BA20FDF791F80120FDF791F8E3
:104560006420FDF753FB0020FDF778FB01209E49F6
:1045700008604FF6FF70FDF7BCFC1FB000BD2DE9D1
:10458000F04F05460E4617469846DDF824A04FF03A
:10459000000B781B401C1FFA80FB344613E02146B9
:1045A0002846FDF7A7F8FDF788F84FF0000906E068
:1045B0008E48A0F800A009F101001FFA80F9D94542
:1045C000F6DB601C84B24445E9DDBDE8F08F2DE9DF
:1045D000F84F07460D4690469946DDF828B0A8EBFF
:1045E0000700401C1FFA80FAA9EB0500401C80B2AE
:1045F0000090002414E0281981B23846FDF77AF8BB
:10460000FDF75BF8002607E004FB0A603BF81000AA
:1046100076490880701C86B25645F5DB601C84B272
:1046200000988442E7DBBDE8F88F2DE9FF4F84B0A6
:1046300081468A460020039002900698A0EB090567
:104640000798A0EB0A06CDF80490CDF800A0002D45
:1046500001DD012705E00DB9002702E04FF0FF372B
:104660006D42002E02DD4FF0010806E016B94FF052
:10467000000802E04FF0FF387642B54201DD2C46DB
:1046800000E034464FF0000B21E0009A91B2019A0D
:1046900090B2FDF738FA039828440390029830440A
:1046A00002900398A04205DD0398001B0390019837
:1046B000384401900298A04205DD0298001B029048
:1046C0000098404400900BF101001FFA80FB601C31
:1046D0008345DADD08B0BDE8F08FF0B504460D463D
:1046E00016461F462B46324629462046FFF79DFFB9
:1046F0003B46224629462046FFF797FF3B46324677
:1047000039462046FFF791FF3B4632462946304660
:10471000FFF78BFFF0BD2DE9F04306460F469046AC
:10472000002445460320A0EB48093CE07A1B91B2E7
:10473000321990B2FDF7E7F93A1B91B2721990B2B3
:10474000FDF7E1F93A1991B2721990B2FDF7DBF970
:104750007A1991B2321990B2FDF7D5F97A1991B25E
:10476000321B90B2FDF7CFF93A1991B2721B90B299
:10477000FDF7C9F97A1B91B2321B90B2FDF7C3F96C
:104780003A1B91B2721B90B2FDF7BDF9641CB9F1EE
:10479000000F03DAA000801D814404E0601B80004C
:1047A0000A3081446D1EAC42C0DDBDE8F0832DE9C6
:1047B000F84F80460E4617461C46B3462046E31780
:1047C00004EB5373DB1021464FEAE47C04EB5C7C82
:1047D0004FEAEC0CA4EBCC0CBCF1000F08D04FF06E
:1047E000010C07E0F4020020808121420008006CE7
:1047F0004FF0000C6344224604EBD27C4FEA6C0C71
:1048000003FB0CF3DBB20093A7F12000C7B2002535
:1048100056E00C2C07D107EB4700FE4901EB800066
:1048200010F8059013E0102C05D1FB4800EB0710A1
:1048300010F805900BE0182C07D107EBC700F749DB
:1048400001EB800010F8059001E0BDE8F88F4FF013
:10485000000A2FE009F0800030B1F14802883146AB
:104860004046FDF75EF907E00A9828B9ED4802884E
:1048700031464046FDF755F94FEA49604FEA106965
:10488000701C86B2E8484088B04200DCDDE7A6EB49
:104890000B00A0420AD15E4608F101001FFA80F821
:1048A000E1480088404500DCCFE706E00AF101005E
:1048B00000F0FF0ABAF1080FCCDB00BF681CC5B2DC
:1048C00000988542A5DB00BFBFE710B50246012076
:1048D00000E050430B1EA1F10104E1B2F9D110BD7B
:1048E0002DE9FF4F81B0074691461E460E9D4FF0C1
:1048F000000A002439E0301B401EC1B20A20FFF735
:10490000E4FFB9FBF0F00A21B0FBF1F201FB120861
:10491000BAF1000F16D1701EA04213DDB8F1000FDE
:104920000ED10020AB4605EBDB71491001FB047191
:10493000009088B22B4620220299FFF738FF12E040
:104940004FF0010A0020AB4605EBDB71491001FB7B
:104950000471009088B208F13001CAB22B46029966
:10496000FFF725FF00BF601CC4B2B442C3DB05B033
:10497000BDE8F08F2DE9FF4F82B0064692461F46F4
:10498000DDE90F480020019000254DE0781B401E16
:10499000C1B20A20FFF799FFBAFBF0F00A21B0FB81
:1049A000F1F201FB1209019850BB781EA84227DDE5
:1049B000B9F1000F22D108F0800078B108F00100B1
:1049C000A34604EBDB71491001FB0561009088B23E
:1049D000234630220399FFF7EAFE0EE008F00100BB
:1049E000A34604EBDB71491001FB0561009088B21E
:1049F000234620220399FFF7DAFE13E001200190FD
:104A000008F00100A34604EBDB71491001FB0561CE
:104A1000009088B209F13001CAB223460399FFF72A
:104A2000C6FE00BF681CC5B2BD42AFDB06B0BDE824
:104A3000F08F2DE9F84704460D4690469946DDE98A
:104A4000096704F0FF0A08EB04001FFA80F809EB7D
:104A500005001FFA80F916E0444502DB5446A81908
:104A600085B24D4500DB14E0002000903A783346D3
:104A700029462046FFF79BFE304606EBD07104EB3B
:104A800061018CB27F1C38787E2802DC38782028BF
:104A9000E2DA00BFBDE8F8872DE9F04706460F4689
:104AA000904699465E48B0F800A0A0F80090002417
:104AB00031E0454601E0681E85B205FB05F004FBC8
:104AC000040108FB08F08142F5DC07EB050C1FFA36
:104AD0008CF304EB060C1FFA8CF2A7EB050C1FFA03
:104AE0008CF104EB060C1FFA8CF0FFF79EFD07EB30
:104AF000050C1FFA8CF3A6EB040C1FFA8CF2A7EB43
:104B0000050C1FFA8CF1A6EB040C1FFA8CF0FFF7D2
:104B10008CFD601C84B24445CBDD4148A0F800A068
:104B2000BDE8F0872DE9FF4F89B08A46179C002029
:104B30000790A346E11704EB5171C910A4EBC10122
:104B400009B1012100E00021084604F092FDCDE901
:104B50000201204604F0A4FD0022344BCDE90001FF
:104B600004F0D2FB0746DDE9022304F019FB0546F9
:104B700004F052FDC0B2059005986043049003E034
:104B80000798401C40B207902949079851F8201017
:104B90000B988142F4D14FF0000938E007200690CD
:104BA0001EE00499079800FB01911698405C069955
:104BB000084100F0010028B151460C9A0998FCF711
:104BC000B0FF05E01748028851460998FCF7A9FF95
:104BD0000AF101001FFA80FA0698401E40B20690C2
:104BE00006980028DDDA09F10100059990FBF1F241
:104BF00001FB120038B90998401C80B20990AAEB59
:104C000004001FFA80FA09F101001FFA80F90498E4
:104C100081450FE07CA40008F0A80008E0AE000881
:104C20007A0200207C020020F402002000002040D4
:104C300058A40008B2DD0DB0BDE8F08F2DE9F74FA4
:104C40008EB007461546E91705EB5171C910A5EB63
:104C5000C101089509B1012100E00021084604F0D6
:104C600008FDCDE90401284604F01AFD0022C94BD5
:104C7000CDE9000104F048FBCDE90201DDE90423A0
:104C800004F08EFACDE9060104F0C6FCC0B209902A
:104C9000099805FB00FBC04800EB071090F90400E1
:104CA000BE4931F810000D90BB4800EB071090F999
:104CB0000500BB4931F810000C90B74800EB071015
:104CC000008880B20B90B44800EB071090F9060002
:104CD00080B20A904FF0000A03E00AF1010000F0F0
:104CE000FF0AB04850F82A100B988142F5D10A9873
:104CF000002879D0284604F0D3FC0022AA4BCDE945
:104D0000000104F01DFDCDE904010D9804F0C8FC7C
:104D1000CDE90201DDE9042304F038FFCDE9060105
:104D200004F07AFC1FFA80F8284604F0B9FC00224F
:104D30009D4BCDE9000104F003FDCDE904010C9881
:104D400004F0AEFCCDE90201DDE9042304F01EFF0E
:104D5000CDE9060104F060FC1FFA80F900243FE071
:104D6000002614E00AFB0B410F98405CC6F10701D6
:104D7000084100F0010020B1002249464046FCF7FE
:104D8000D0FE09F101001FFA80F9701CC6B2072E8F
:104D9000E8DD601C099990FBF1F201FB1200E8B913
:104DA00008F101001FFA80F8284604F079FC00227F
:104DB0007D4BCDE9000104F0C3FCCDE904010C9862
:104DC00004F06EFCCDE90201DDE9042304F0DEFE0F
:104DD000CDE9060104F020FC1FFA80F9601CC4B282
:104DE0005C45BDDD79E0FFE7284604F059FC002270
:104DF0006D4BCDE9000104F0A3FCCDE904010D9851
:104E000004F04EFCCDE90201DDE9042304F0C8F909
:104E1000CDE9060104F000FC1FFA80F8284604F0F2
:104E20003FFC0022604BCDE9000104F089FCCDE994
:104E300004010C9804F034FCCDE90201DDE90423FF
:104E400004F0AEF9CDE9060104F0E6FB1FFA80F9A3
:104E5000002440E0002615E00AFB0B410F98405C5F
:104E6000C6F10701084100F0010028B14FF4784273
:104E700049464046FCF755FEA9F101001FFA80F9AA
:104E8000701CC6B2072EE7DD601C099990FBF1F299
:104E900001FB1200E8B9A8F101001FFA80F82846CA
:104EA00004F0FEFB0022404BCDE9000104F048FC79
:104EB000CDE904010C9804F0F3FBCDE90201DDE932
:104EC000042304F06DF9CDE9060104F0A5FB1FFAF7
:104ED00080F9601CC4B25C45BCDD11B0BDE8F08F48
:104EE0002DE9FF4F84B081468A460020039002904E
:104EF0000698A0EB09050798A0EB0A06CDF80490E8
:104F0000CDF800A0002D01DD012705E00DB9002737
:104F100002E04FF0FF376D42002E02DD4FF0010836
:104F200006E016B94FF0000802E04FF0FF38764275
:104F3000B54201DD2C4600E034464FF0000B21E085
:104F4000009A91B2019A90B2FCF7DDFD03982844D3
:104F500003900298304402900398A04205DD039824
:104F6000001B03900198384401900298A04205DD8F
:104F70000298001B02900098404400900BF1010041
:104F80001FFA80FB09480078201A5845D8DA08B083
:104F9000BDE8F08F00002040200000200203002028
:104FA000140300202CA400080000E03F870200202A
:104FB00070B50446FE4800EB041090F90400FD496A
:104FC00031F81050FA4800EB041090F90500FA4946
:104FD00031F810604FF6FF73F848027831462846E2
:104FE000FFF75AFDE0B2F6490A78F6490968FFF77B
:104FF00025FE70BD10B5002404E060B2FFF7D8FFB5
:10500000601CC4B21F2CF8DD10BDF8B54BF6404053
:10501000ED490880ED48808849F24131884228D125
:10502000F020EB4908804FF4A070EA4908800D2079
:10503000E94908701420E94908705020E8490870CF
:105040000C20DE4908701020DD4908703820E54941
:105050000870E548DB490860E448E549086000203D
:10506000E44908804FF48270E34908800C20E3494A
:105070000870D7490988D84A1278022303FB121016
:10508000C11700EB5171C1F3C705D2480088D3495D
:105090000978401AD2490978401A092190FBF1F0A9
:1050A000C6B2C9480088FCF724FF002408E0CA48BB
:1050B000007804FB0500BF4921F81400601CC4B24D
:1050C000082CF4DD00240AE0C448007804FB060044
:1050D000C4F10901B84A22F81100601CC4B2092CBD
:1050E000F2DD00240DE0B44F7B8AB24F37F8142074
:1050F000B14F3988AF4F37F81400FFF796FA601CAC
:10510000C4B2082CEFDD00240DE0AB4F37F81430AB
:10511000A84F3A8AA84F37F81410A64F3888FFF7DF
:1051200084FA601CC4B2092CEFDDA7480088A24FA6
:1051300000903F897F1EBBB29E4F3F8A7F1EBAB24E
:105140009D4F7F897F1CB9B29A4F3F887F1CB8B2B0
:10515000FFF715FA984FBB88964F7A89964F398892
:10516000944FF888FFF761FA934F3B88914F7A8903
:10517000914FB9888F4FF888FFF757FA8E4FFB8908
:105180008C4F7A898C4F798A8A4FF888FFF74DFACD
:10519000894F7B8A874F7A89874FF989854FF888AD
:1051A000FFF743FAFFF726FFF8BD2DE9F04104466B
:1051B0000D469348B0F800807E4830F814707E4861
:1051C00030F81560804803887C48027831463846BC
:1051D000FFF762FC4FF478408949088077490978E5
:1051E00039448AB275490978791A88B2334631460A
:1051F000FFF71BFA71480078304483B26F4800789B
:10520000301A81B23A463846FFF70FFA032C01D024
:10521000052C0AD10DB1022D07D167484388654896
:10522000028931463846FFF75BFE032C01D0052C7E
:105230000BD1072D01D0092D07D15F48038A5D48A6
:10524000028931463846FFF74BFE042C21D1012D4F
:105250001FD1594803885748C28831463846FFF75E
:105260003FFE554883885348C28831463846FFF789
:1052700037FE514803884F48428931463846FFF788
:105280002FFE4D4883884B48428931463846FFF708
:1052900027FE042C21D1082D1FD14748C38945483A
:1052A000C28831463846FFF71BFE4348438A4148CF
:1052B000C28831463846FFF713FE3F48C3893D4850
:1052C000428931463846FFF70BFE3B48438A39484E
:1052D000428931463846FFF703FE3B48008848497B
:1052E000088044B935490978791A88B233463A4674
:1052F0003146FFF79AF9082C08D130480078384435
:1053000082B2334631463846FFF78FF945B92B480C
:105310000078304483B23A4631463846FFF785F983
:10532000052D0BD154B1082C08D024480078304406
:1053300083B23A4631463846FFF777F9092D08D14E
:105340001E480078301A83B23A4631463846FFF795
:105350006CF9042D0BD154B1082C08D017480078F3
:10536000301A83B23A4631463846FFF75EF9244890
:10537000A0F80080BDE8F08170B504460C4800EB51
:10538000041090F904000B4931F81050084800EB64
:10539000041090F90500084931F810604FF4FC63DF
:1053A0000648027831462846FFF776FB044829E094
:1053B00020000020020300201403002087020020A8
:1053C00088020020900200207C020020F4020020CD
:1053D000800200208202002084020020850200203A
:1053E00086020020890200203CD400089CD50008D9
:1053F000940200208A0200208C0200208E020020ED
:105400007A0200200278804801682046FFF716FCE7
:1054100070BD70B504467D4800EB041090F904009F
:105420007B4931F81050794800EB041090F90500E1
:10543000784931F810604FF6FF73774802783146AB
:105440002846FFF729FB754802786F480168204617
:10545000FFF7F4FB70BD2DE9F04F8BB005467049A6
:105460000988704A1278022303FB1210C11700EB5F
:105470005171C91049B20A916B4800886B4909788B
:10548000401A6B490978401A092190FBF1F04FFA54
:1054900080FAFE20674908704FF0000BB2E0AAE0E6
:1054A0000A9804F0E6F8CDE906010A9804F0E1F85C
:1054B0000022614BCDE9000104F042F9074688461D
:1054C0005E498989574A1278881A04F0D2F83A4618
:1054D0004346CDE9020103F063FECDE90401DDE9B5
:1054E000062303F011FFCDE9080104F065F846B288
:1054F0004E48007804F0D4F8CDE90601504604F097
:10550000B8F8074600224C4B04F01AF9CDE9020125
:105510004A49C88A04F0C4F8CDE90001DDE9022354
:1055200003F03EFECDE90401DDE9062304F02EFB85
:10553000CDE9080104F040F890FBFAF0C0F1090051
:105540004FFA80F9082E02DCB9F1090F00DD52E0B4
:1055500006EB86003A4901EB400010F90940BBF127
:10556000000F13D1601C58B3284800EB041090F9C9
:105570000600344991F9001088422FD1E0B2FFF7BC
:10558000FBFE2C4804704FF0010B27E0601CD8B1E3
:105590001E4800EB041090F906002A4991F900100A
:1055A000884211D123490878FFF733FF214890F949
:1055B0000000844205D01F480470E0B2FFF7DCFE13
:1055C0000CE04FF0000B09E01A4890F90000287039
:1055D0006E7085F802900BB0BDE8F08F03E01748BD
:1055E000416800208847154890F8200000F08000AE
:1055F0000028F4D100BF11484168002088470028E6
:105600007FF44EAF4BE70000900200202000002006
:1056100002030020140300208702002088020020DB
:1056200080020020840200208202002085020020E7
:1056300086020020000000200000E03F9C020020C5
:1056400020020020180000200EB50121084603F0BA
:1056500095F80421084602F0EBFE1020019000208E
:105660008DF808000C208DF8090001A803F0FCFA61
:105670000A208DF8000002208DF801008DF802004C
:1056800001208DF80300684602F0EDF90EBD08B563
:105690000121402003F072F81820ADF800004820E6
:1056A0008DF803006946024802F0ACFD08BD000019
:1056B0000018014010B500F0BBF810BD70B50446ED
:1056C000002600F0CCF82546E11704EB1161091221
:1056D000A02202EB4101C8B200F073F900F000F91A
:1056E000E11704EB11610912A4EB0121C8B200F02B
:1056F00068F900F0F5F800F0B2F8A12000F061F9C7
:1057000000F0EEF8002000F090F9064600F0C7F82F
:10571000304670BD70B504460E4600F0A0F8254630
:10572000E11704EB11610912A02202EB4101C8B29A
:1057300000F047F900F0D4F8E11704EB1161091209
:10574000A4EB0121C8B200F03CF900F0C9F83046E2
:1057500000F037F900F0C4F800F0A1F80A2002F0D8
:1057600090F870BD2DE9F04105460E46174600241D
:1057700009E0E20026FA02F2D1B22A1990B2FFF74C
:10578000C9FF601CC4B2BC42F3DBBDE8F0812DE967
:10579000F04107460C460026002509E0360239197B
:1057A000491B491E88B2FFF789FF0644681CC5B231
:1057B000A542F3DB3046BDE8F08110B5FF20FFF7CE
:1057C0007DFF0446552C01D1002010BD5521FF203E
:1057D000FFF7A0FFFF20FFF771FF0446552C01D112
:1057E0000020F2E70120F0E770B506460C461546AA
:1057F00008E03046721C96B2FFF760FF04F8010B18
:10580000681E85B2002DF4D170BD70B505460C46FA
:10581000164606E021782846FFF77CFF681C85B213
:10582000641C301EA6F101018EB2F3D170BD0000E0
:1058300008B50121082002F0A1FFC020ADF800004A
:1058400010208DF8030003208DF80200694690486F
:1058500002F0D8FCC0218E4802F081FD08BD10B5D1
:105860008B48006820F0704089490860084600684D
:1058700040F0405008600120864908608649C1F820
:105880009801042001F0D9FF00208249086004201B
:1058900001F0D3FF00208049C1F8980110BD10B578
:1058A0007B48006820F0704079490860084600682D
:1058B00040F04050086000207649091F0860764992
:1058C000C1F89C01042001F0B8FF01207149091FB3
:1058D00008607149C1F89C01042001F0AEFF10BDC1
:1058E00010B500246A48006820F0704068490860DC
:1058F0000846006840F000400860012065490860E3
:1059000001F09BFF01206449C1F8980101F095FF67
:1059100007E0601CC4B2FA2C03DDFFF7C0FF0120D2
:1059200010BD5C48803800680028F2D15949091F31
:10593000086000BFF4E710B500205649091F086051
:105940005348006820F070405149086008460068DC
:1059500040F04050086000204F49C1F89C010220EF
:1059600001F06BFF01204B49091F0860022001F084
:1059700064FF00204849C1F8980110BD10B500200F
:105980004449091F08604248006820F070404049BF
:1059900008600846006840F04050086001203E4919
:1059A000C1F89C01022001F048FF01203949091F7C
:1059B0000860022001F041FF00203749C1F898013A
:1059C00010BD70B504463248006820F07040304980
:1059D00008600846006840F04050086000202D49EB
:1059E000091F086000251DE0E00918B101202949C0
:1059F000086002E00020274908606006040E0220CB
:105A000001F01BFF01202349091F0860022001F05B
:105A100014FF00202049C1F89801022001F00DFF79
:105A2000681CC5B2082DDFDB70BD70B505460024CB
:105A30001748006820F07040154908600846006863
:105A400040F000400860002617E000201149091FBF
:105A50000860022001F0F1FE01200F49C1F8980111
:105A60006006040E0B488038006808B1601CC4B2A0
:105A7000012001F0E2FE701CC6B2082EE5DB15B96C
:105A8000FFF77CFF01E0FFF756FF204670BD0000E6
:105A9000000C01409C8121420080214210B505206C
:105AA00001F0CBFE10BD08B50121882002F066FE92
:105AB0000220ADF8000010208DF8030003208DF8BF
:105AC00002006946904802F09DFB02218E4802F0D8
:105AD00046FC4FF40070ADF8000069468B4802F0B8
